{
	"Decentralized Marketplace.sol": {
		"Marketplace": {
			"abi": [
				{
					"anonymous": false,
					"inputs": [
						{
							"indexed": true,
							"internalType": "uint256",
							"name": "itemId",
							"type": "uint256"
						},
						{
							"indexed": true,
							"internalType": "address",
							"name": "owner",
							"type": "address"
						},
						{
							"indexed": true,
							"internalType": "address",
							"name": "buyer",
							"type": "address"
						}
					],
					"name": "ItemAccepted",
					"type": "event"
				},
				{
					"anonymous": false,
					"inputs": [
						{
							"indexed": true,
							"internalType": "uint256",
							"name": "itemId",
							"type": "uint256"
						},
						{
							"indexed": false,
							"internalType": "string",
							"name": "name",
							"type": "string"
						},
						{
							"indexed": false,
							"internalType": "uint256",
							"name": "price",
							"type": "uint256"
						},
						{
							"indexed": true,
							"internalType": "address",
							"name": "owner",
							"type": "address"
						}
					],
					"name": "ItemAvailable",
					"type": "event"
				},
				{
					"anonymous": false,
					"inputs": [
						{
							"indexed": true,
							"internalType": "uint256",
							"name": "itemId",
							"type": "uint256"
						},
						{
							"indexed": false,
							"internalType": "uint256",
							"name": "price",
							"type": "uint256"
						},
						{
							"indexed": true,
							"internalType": "address",
							"name": "buyer",
							"type": "address"
						}
					],
					"name": "OfferPlaced",
					"type": "event"
				},
				{
					"inputs": [
						{
							"internalType": "uint256",
							"name": "_itemId",
							"type": "uint256"
						}
					],
					"name": "acceptOffer",
					"outputs": [],
					"stateMutability": "nonpayable",
					"type": "function"
				},
				{
					"inputs": [],
					"name": "itemCounter",
					"outputs": [
						{
							"internalType": "uint256",
							"name": "",
							"type": "uint256"
						}
					],
					"stateMutability": "view",
					"type": "function"
				},
				{
					"inputs": [
						{
							"internalType": "uint256",
							"name": "",
							"type": "uint256"
						}
					],
					"name": "items",
					"outputs": [
						{
							"internalType": "string",
							"name": "name",
							"type": "string"
						},
						{
							"internalType": "uint256",
							"name": "price",
							"type": "uint256"
						},
						{
							"internalType": "address",
							"name": "owner",
							"type": "address"
						},
						{
							"internalType": "bool",
							"name": "isAvailable",
							"type": "bool"
						},
						{
							"internalType": "address",
							"name": "buyer",
							"type": "address"
						},
						{
							"internalType": "bool",
							"name": "isAccepted",
							"type": "bool"
						}
					],
					"stateMutability": "view",
					"type": "function"
				},
				{
					"inputs": [
						{
							"internalType": "string",
							"name": "_name",
							"type": "string"
						},
						{
							"internalType": "uint256",
							"name": "_price",
							"type": "uint256"
						}
					],
					"name": "makeItemAvailable",
					"outputs": [],
					"stateMutability": "nonpayable",
					"type": "function"
				},
				{
					"inputs": [
						{
							"internalType": "uint256",
							"name": "_itemId",
							"type": "uint256"
						}
					],
					"name": "makeOffer",
					"outputs": [],
					"stateMutability": "payable",
					"type": "function"
				}
			],
			"devdoc": {
				"kind": "dev",
				"methods": {},
				"version": 1
			},
			"evm": {
				"assembly": "    /* \"Decentralized Marketplace.sol\":57:1876  contract Marketplace {... */\n  mstore(0x40, 0x80)\n  callvalue\n  dup1\n  iszero\n  tag_1\n  jumpi\n  0x00\n  dup1\n  revert\ntag_1:\n  pop\n  dataSize(sub_0)\n  dup1\n  dataOffset(sub_0)\n  0x00\n  codecopy\n  0x00\n  return\nstop\n\nsub_0: assembly {\n        /* \"Decentralized Marketplace.sol\":57:1876  contract Marketplace {... */\n      mstore(0x40, 0x80)\n      jumpi(tag_1, lt(calldatasize, 0x04))\n      shr(0xe0, calldataload(0x00))\n      dup1\n      0x6d6d00ed\n      eq\n      tag_2\n      jumpi\n      dup1\n      0x8a075f90\n      eq\n      tag_3\n      jumpi\n      dup1\n      0x9a2f6474\n      eq\n      tag_4\n      jumpi\n      dup1\n      0xbfb231d2\n      eq\n      tag_5\n      jumpi\n      dup1\n      0xc815729d\n      eq\n      tag_6\n      jumpi\n    tag_1:\n      0x00\n      dup1\n      revert\n        /* \"Decentralized Marketplace.sol\":308:331  uint public itemCounter */\n    tag_2:\n      callvalue\n      dup1\n      iszero\n      tag_7\n      jumpi\n      0x00\n      dup1\n      revert\n    tag_7:\n      pop\n      tag_8\n      tag_9\n      jump\t// in\n    tag_8:\n      mload(0x40)\n      tag_10\n      swap2\n      swap1\n      tag_11\n      jump\t// in\n    tag_10:\n      mload(0x40)\n      dup1\n      swap2\n      sub\n      swap1\n      return\n        /* \"Decentralized Marketplace.sol\":617:936  function makeItemAvailable(string memory _name, uint _price) public {... */\n    tag_3:\n      callvalue\n      dup1\n      iszero\n      tag_12\n      jumpi\n      0x00\n      dup1\n      revert\n    tag_12:\n      pop\n      tag_13\n      0x04\n      dup1\n      calldatasize\n      sub\n      dup2\n      add\n      swap1\n      tag_14\n      swap2\n      swap1\n      tag_15\n      jump\t// in\n    tag_14:\n      tag_16\n      jump\t// in\n    tag_13:\n      stop\n        /* \"Decentralized Marketplace.sol\":948:1384  function makeOffer(uint _itemId) public payable {... */\n    tag_4:\n      tag_17\n      0x04\n      dup1\n      calldatasize\n      sub\n      dup2\n      add\n      swap1\n      tag_18\n      swap2\n      swap1\n      tag_19\n      jump\t// in\n    tag_18:\n      tag_20\n      jump\t// in\n    tag_17:\n      stop\n        /* \"Decentralized Marketplace.sol\":267:301  mapping(uint => Item) public items */\n    tag_5:\n      callvalue\n      dup1\n      iszero\n      tag_21\n      jumpi\n      0x00\n      dup1\n      revert\n    tag_21:\n      pop\n      tag_22\n      0x04\n      dup1\n      calldatasize\n      sub\n      dup2\n      add\n      swap1\n      tag_23\n      swap2\n      swap1\n      tag_19\n      jump\t// in\n    tag_23:\n      tag_24\n      jump\t// in\n    tag_22:\n      mload(0x40)\n      tag_25\n      swap7\n      swap6\n      swap5\n      swap4\n      swap3\n      swap2\n      swap1\n      tag_26\n      jump\t// in\n    tag_25:\n      mload(0x40)\n      dup1\n      swap2\n      sub\n      swap1\n      return\n        /* \"Decentralized Marketplace.sol\":1396:1873  function acceptOffer(uint _itemId) public {... */\n    tag_6:\n      callvalue\n      dup1\n      iszero\n      tag_27\n      jumpi\n      0x00\n      dup1\n      revert\n    tag_27:\n      pop\n      tag_28\n      0x04\n      dup1\n      calldatasize\n      sub\n      dup2\n      add\n      swap1\n      tag_29\n      swap2\n      swap1\n      tag_19\n      jump\t// in\n    tag_29:\n      tag_30\n      jump\t// in\n    tag_28:\n      stop\n        /* \"Decentralized Marketplace.sol\":308:331  uint public itemCounter */\n    tag_9:\n      sload(0x01)\n      dup2\n      jump\t// out\n        /* \"Decentralized Marketplace.sol\":617:936  function makeItemAvailable(string memory _name, uint _price) public {... */\n    tag_16:\n        /* \"Decentralized Marketplace.sol\":713:714  0 */\n      0x00\n        /* \"Decentralized Marketplace.sol\":704:710  _price */\n      dup2\n        /* \"Decentralized Marketplace.sol\":704:714  _price > 0 */\n      gt\n        /* \"Decentralized Marketplace.sol\":696:747  require(_price > 0, \"Price must be greater than 0\") */\n      tag_32\n      jumpi\n      mload(0x40)\n      0x08c379a000000000000000000000000000000000000000000000000000000000\n      dup2\n      mstore\n      0x04\n      add\n      tag_33\n      swap1\n      tag_34\n      jump\t// in\n    tag_33:\n      mload(0x40)\n      dup1\n      swap2\n      sub\n      swap1\n      revert\n    tag_32:\n        /* \"Decentralized Marketplace.sol\":758:769  itemCounter */\n      0x01\n      0x00\n        /* \"Decentralized Marketplace.sol\":758:771  itemCounter++ */\n      dup2\n      sload\n      dup1\n      swap3\n      swap2\n      swap1\n      tag_35\n      swap1\n      tag_36\n      jump\t// in\n    tag_35:\n      swap2\n      swap1\n      pop\n      sstore\n      pop\n        /* \"Decentralized Marketplace.sol\":803:859  Item(_name, _price, msg.sender, true, address(0), false) */\n      mload(0x40)\n      dup1\n      0xc0\n      add\n      0x40\n      mstore\n      dup1\n        /* \"Decentralized Marketplace.sol\":808:813  _name */\n      dup4\n        /* \"Decentralized Marketplace.sol\":803:859  Item(_name, _price, msg.sender, true, address(0), false) */\n      dup2\n      mstore\n      0x20\n      add\n        /* \"Decentralized Marketplace.sol\":815:821  _price */\n      dup3\n        /* \"Decentralized Marketplace.sol\":803:859  Item(_name, _price, msg.sender, true, address(0), false) */\n      dup2\n      mstore\n      0x20\n      add\n        /* \"Decentralized Marketplace.sol\":823:833  msg.sender */\n      caller\n        /* \"Decentralized Marketplace.sol\":803:859  Item(_name, _price, msg.sender, true, address(0), false) */\n      0xffffffffffffffffffffffffffffffffffffffff\n      and\n      dup2\n      mstore\n      0x20\n      add\n        /* \"Decentralized Marketplace.sol\":835:839  true */\n      0x01\n        /* \"Decentralized Marketplace.sol\":803:859  Item(_name, _price, msg.sender, true, address(0), false) */\n      iszero\n      iszero\n      dup2\n      mstore\n      0x20\n      add\n        /* \"Decentralized Marketplace.sol\":849:850  0 */\n      0x00\n        /* \"Decentralized Marketplace.sol\":803:859  Item(_name, _price, msg.sender, true, address(0), false) */\n      0xffffffffffffffffffffffffffffffffffffffff\n      and\n      dup2\n      mstore\n      0x20\n      add\n        /* \"Decentralized Marketplace.sol\":853:858  false */\n      0x00\n        /* \"Decentralized Marketplace.sol\":803:859  Item(_name, _price, msg.sender, true, address(0), false) */\n      iszero\n      iszero\n      dup2\n      mstore\n      pop\n        /* \"Decentralized Marketplace.sol\":782:787  items */\n      0x00\n        /* \"Decentralized Marketplace.sol\":782:800  items[itemCounter] */\n      dup1\n        /* \"Decentralized Marketplace.sol\":788:799  itemCounter */\n      sload(0x01)\n        /* \"Decentralized Marketplace.sol\":782:800  items[itemCounter] */\n      dup2\n      mstore\n      0x20\n      add\n      swap1\n      dup2\n      mstore\n      0x20\n      add\n      0x00\n      keccak256\n        /* \"Decentralized Marketplace.sol\":782:859  items[itemCounter] = Item(_name, _price, msg.sender, true, address(0), false) */\n      0x00\n      dup3\n      add\n      mload\n      dup2\n      0x00\n      add\n      swap1\n      dup2\n      tag_37\n      swap2\n      swap1\n      tag_38\n      jump\t// in\n    tag_37:\n      pop\n      0x20\n      dup3\n      add\n      mload\n      dup2\n      0x01\n      add\n      sstore\n      0x40\n      dup3\n      add\n      mload\n      dup2\n      0x02\n      add\n      exp(0x0100, 0x00)\n      dup2\n      sload\n      dup2\n      0xffffffffffffffffffffffffffffffffffffffff\n      mul\n      not\n      and\n      swap1\n      dup4\n      0xffffffffffffffffffffffffffffffffffffffff\n      and\n      mul\n      or\n      swap1\n      sstore\n      pop\n      0x60\n      dup3\n      add\n      mload\n      dup2\n      0x02\n      add\n      exp(0x0100, 0x14)\n      dup2\n      sload\n      dup2\n      0xff\n      mul\n      not\n      and\n      swap1\n      dup4\n      iszero\n      iszero\n      mul\n      or\n      swap1\n      sstore\n      pop\n      0x80\n      dup3\n      add\n      mload\n      dup2\n      0x03\n      add\n      exp(0x0100, 0x00)\n      dup2\n      sload\n      dup2\n      0xffffffffffffffffffffffffffffffffffffffff\n      mul\n      not\n      and\n      swap1\n      dup4\n      0xffffffffffffffffffffffffffffffffffffffff\n      and\n      mul\n      or\n      swap1\n      sstore\n      pop\n      0xa0\n      dup3\n      add\n      mload\n      dup2\n      0x03\n      add\n      exp(0x0100, 0x14)\n      dup2\n      sload\n      dup2\n      0xff\n      mul\n      not\n      and\n      swap1\n      dup4\n      iszero\n      iszero\n      mul\n      or\n      swap1\n      sstore\n      pop\n      swap1\n      pop\n      pop\n        /* \"Decentralized Marketplace.sol\":917:927  msg.sender */\n      caller\n        /* \"Decentralized Marketplace.sol\":875:928  ItemAvailable(itemCounter, _name, _price, msg.sender) */\n      0xffffffffffffffffffffffffffffffffffffffff\n      and\n        /* \"Decentralized Marketplace.sol\":889:900  itemCounter */\n      sload(0x01)\n        /* \"Decentralized Marketplace.sol\":875:928  ItemAvailable(itemCounter, _name, _price, msg.sender) */\n      0xd1df9005e78e0aee3ad3697f1a6cbefe8cc807e07de4ecb63eaff32f3130b227\n        /* \"Decentralized Marketplace.sol\":902:907  _name */\n      dup5\n        /* \"Decentralized Marketplace.sol\":909:915  _price */\n      dup5\n        /* \"Decentralized Marketplace.sol\":875:928  ItemAvailable(itemCounter, _name, _price, msg.sender) */\n      mload(0x40)\n      tag_39\n      swap3\n      swap2\n      swap1\n      tag_40\n      jump\t// in\n    tag_39:\n      mload(0x40)\n      dup1\n      swap2\n      sub\n      swap1\n      log3\n        /* \"Decentralized Marketplace.sol\":617:936  function makeItemAvailable(string memory _name, uint _price) public {... */\n      pop\n      pop\n      jump\t// out\n        /* \"Decentralized Marketplace.sol\":948:1384  function makeOffer(uint _itemId) public payable {... */\n    tag_20:\n        /* \"Decentralized Marketplace.sol\":1015:1020  items */\n      0x00\n        /* \"Decentralized Marketplace.sol\":1015:1029  items[_itemId] */\n      dup1\n        /* \"Decentralized Marketplace.sol\":1021:1028  _itemId */\n      dup3\n        /* \"Decentralized Marketplace.sol\":1015:1029  items[_itemId] */\n      dup2\n      mstore\n      0x20\n      add\n      swap1\n      dup2\n      mstore\n      0x20\n      add\n      0x00\n      keccak256\n        /* \"Decentralized Marketplace.sol\":1015:1041  items[_itemId].isAvailable */\n      0x02\n      add\n      0x14\n      swap1\n      sload\n      swap1\n      0x0100\n      exp\n      swap1\n      div\n      0xff\n      and\n        /* \"Decentralized Marketplace.sol\":1007:1067  require(items[_itemId].isAvailable, \"Item is not available\") */\n      tag_42\n      jumpi\n      mload(0x40)\n      0x08c379a000000000000000000000000000000000000000000000000000000000\n      dup2\n      mstore\n      0x04\n      add\n      tag_43\n      swap1\n      tag_44\n      jump\t// in\n    tag_43:\n      mload(0x40)\n      dup1\n      swap2\n      sub\n      swap1\n      revert\n    tag_42:\n        /* \"Decentralized Marketplace.sol\":1110:1120  msg.sender */\n      caller\n        /* \"Decentralized Marketplace.sol\":1086:1120  items[_itemId].owner != msg.sender */\n      0xffffffffffffffffffffffffffffffffffffffff\n      and\n        /* \"Decentralized Marketplace.sol\":1086:1091  items */\n      0x00\n        /* \"Decentralized Marketplace.sol\":1086:1100  items[_itemId] */\n      dup1\n        /* \"Decentralized Marketplace.sol\":1092:1099  _itemId */\n      dup4\n        /* \"Decentralized Marketplace.sol\":1086:1100  items[_itemId] */\n      dup2\n      mstore\n      0x20\n      add\n      swap1\n      dup2\n      mstore\n      0x20\n      add\n      0x00\n      keccak256\n        /* \"Decentralized Marketplace.sol\":1086:1106  items[_itemId].owner */\n      0x02\n      add\n      0x00\n      swap1\n      sload\n      swap1\n      0x0100\n      exp\n      swap1\n      div\n      0xffffffffffffffffffffffffffffffffffffffff\n      and\n        /* \"Decentralized Marketplace.sol\":1086:1120  items[_itemId].owner != msg.sender */\n      0xffffffffffffffffffffffffffffffffffffffff\n      and\n      sub\n        /* \"Decentralized Marketplace.sol\":1078:1149  require(items[_itemId].owner != msg.sender, \"Cannot buy your own item\") */\n      tag_45\n      jumpi\n      mload(0x40)\n      0x08c379a000000000000000000000000000000000000000000000000000000000\n      dup2\n      mstore\n      0x04\n      add\n      tag_46\n      swap1\n      tag_47\n      jump\t// in\n    tag_46:\n      mload(0x40)\n      dup1\n      swap2\n      sub\n      swap1\n      revert\n    tag_45:\n        /* \"Decentralized Marketplace.sol\":1181:1186  items */\n      0x00\n        /* \"Decentralized Marketplace.sol\":1181:1195  items[_itemId] */\n      dup1\n        /* \"Decentralized Marketplace.sol\":1187:1194  _itemId */\n      dup3\n        /* \"Decentralized Marketplace.sol\":1181:1195  items[_itemId] */\n      dup2\n      mstore\n      0x20\n      add\n      swap1\n      dup2\n      mstore\n      0x20\n      add\n      0x00\n      keccak256\n        /* \"Decentralized Marketplace.sol\":1181:1201  items[_itemId].price */\n      0x01\n      add\n      sload\n        /* \"Decentralized Marketplace.sol\":1168:1177  msg.value */\n      callvalue\n        /* \"Decentralized Marketplace.sol\":1168:1201  msg.value == items[_itemId].price */\n      eq\n        /* \"Decentralized Marketplace.sol\":1160:1230  require(msg.value == items[_itemId].price, \"Incorrect payment amount\") */\n      tag_48\n      jumpi\n      mload(0x40)\n      0x08c379a000000000000000000000000000000000000000000000000000000000\n      dup2\n      mstore\n      0x04\n      add\n      tag_49\n      swap1\n      tag_50\n      jump\t// in\n    tag_49:\n      mload(0x40)\n      dup1\n      swap2\n      sub\n      swap1\n      revert\n    tag_48:\n        /* \"Decentralized Marketplace.sol\":1264:1274  msg.sender */\n      caller\n        /* \"Decentralized Marketplace.sol\":1241:1246  items */\n      0x00\n        /* \"Decentralized Marketplace.sol\":1241:1255  items[_itemId] */\n      dup1\n        /* \"Decentralized Marketplace.sol\":1247:1254  _itemId */\n      dup4\n        /* \"Decentralized Marketplace.sol\":1241:1255  items[_itemId] */\n      dup2\n      mstore\n      0x20\n      add\n      swap1\n      dup2\n      mstore\n      0x20\n      add\n      0x00\n      keccak256\n        /* \"Decentralized Marketplace.sol\":1241:1261  items[_itemId].buyer */\n      0x03\n      add\n      0x00\n        /* \"Decentralized Marketplace.sol\":1241:1274  items[_itemId].buyer = msg.sender */\n      0x0100\n      exp\n      dup2\n      sload\n      dup2\n      0xffffffffffffffffffffffffffffffffffffffff\n      mul\n      not\n      and\n      swap1\n      dup4\n      0xffffffffffffffffffffffffffffffffffffffff\n      and\n      mul\n      or\n      swap1\n      sstore\n      pop\n        /* \"Decentralized Marketplace.sol\":1313:1317  true */\n      0x01\n        /* \"Decentralized Marketplace.sol\":1285:1290  items */\n      0x00\n        /* \"Decentralized Marketplace.sol\":1285:1299  items[_itemId] */\n      dup1\n        /* \"Decentralized Marketplace.sol\":1291:1298  _itemId */\n      dup4\n        /* \"Decentralized Marketplace.sol\":1285:1299  items[_itemId] */\n      dup2\n      mstore\n      0x20\n      add\n      swap1\n      dup2\n      mstore\n      0x20\n      add\n      0x00\n      keccak256\n        /* \"Decentralized Marketplace.sol\":1285:1310  items[_itemId].isAccepted */\n      0x03\n      add\n      0x14\n        /* \"Decentralized Marketplace.sol\":1285:1317  items[_itemId].isAccepted = true */\n      0x0100\n      exp\n      dup2\n      sload\n      dup2\n      0xff\n      mul\n      not\n      and\n      swap1\n      dup4\n      iszero\n      iszero\n      mul\n      or\n      swap1\n      sstore\n      pop\n        /* \"Decentralized Marketplace.sol\":1365:1375  msg.sender */\n      caller\n        /* \"Decentralized Marketplace.sol\":1333:1376  OfferPlaced(_itemId, msg.value, msg.sender) */\n      0xffffffffffffffffffffffffffffffffffffffff\n      and\n        /* \"Decentralized Marketplace.sol\":1345:1352  _itemId */\n      dup2\n        /* \"Decentralized Marketplace.sol\":1333:1376  OfferPlaced(_itemId, msg.value, msg.sender) */\n      0x1e0aee6238465e23d99e9361c2fa580685f8fd4464d3a6e57662e745e1a44191\n        /* \"Decentralized Marketplace.sol\":1354:1363  msg.value */\n      callvalue\n        /* \"Decentralized Marketplace.sol\":1333:1376  OfferPlaced(_itemId, msg.value, msg.sender) */\n      mload(0x40)\n      tag_51\n      swap2\n      swap1\n      tag_11\n      jump\t// in\n    tag_51:\n      mload(0x40)\n      dup1\n      swap2\n      sub\n      swap1\n      log3\n        /* \"Decentralized Marketplace.sol\":948:1384  function makeOffer(uint _itemId) public payable {... */\n      pop\n      jump\t// out\n        /* \"Decentralized Marketplace.sol\":267:301  mapping(uint => Item) public items */\n    tag_24:\n      mstore(0x20, 0x00)\n      dup1\n      0x00\n      mstore\n      keccak256(0x00, 0x40)\n      0x00\n      swap2\n      pop\n      swap1\n      pop\n      dup1\n      0x00\n      add\n      dup1\n      sload\n      tag_52\n      swap1\n      tag_53\n      jump\t// in\n    tag_52:\n      dup1\n      0x1f\n      add\n      0x20\n      dup1\n      swap2\n      div\n      mul\n      0x20\n      add\n      mload(0x40)\n      swap1\n      dup2\n      add\n      0x40\n      mstore\n      dup1\n      swap3\n      swap2\n      swap1\n      dup2\n      dup2\n      mstore\n      0x20\n      add\n      dup3\n      dup1\n      sload\n      tag_54\n      swap1\n      tag_53\n      jump\t// in\n    tag_54:\n      dup1\n      iszero\n      tag_55\n      jumpi\n      dup1\n      0x1f\n      lt\n      tag_56\n      jumpi\n      0x0100\n      dup1\n      dup4\n      sload\n      div\n      mul\n      dup4\n      mstore\n      swap2\n      0x20\n      add\n      swap2\n      jump(tag_55)\n    tag_56:\n      dup3\n      add\n      swap2\n      swap1\n      0x00\n      mstore\n      keccak256(0x00, 0x20)\n      swap1\n    tag_57:\n      dup2\n      sload\n      dup2\n      mstore\n      swap1\n      0x01\n      add\n      swap1\n      0x20\n      add\n      dup1\n      dup4\n      gt\n      tag_57\n      jumpi\n      dup3\n      swap1\n      sub\n      0x1f\n      and\n      dup3\n      add\n      swap2\n    tag_55:\n      pop\n      pop\n      pop\n      pop\n      pop\n      swap1\n      dup1\n      0x01\n      add\n      sload\n      swap1\n      dup1\n      0x02\n      add\n      0x00\n      swap1\n      sload\n      swap1\n      0x0100\n      exp\n      swap1\n      div\n      0xffffffffffffffffffffffffffffffffffffffff\n      and\n      swap1\n      dup1\n      0x02\n      add\n      0x14\n      swap1\n      sload\n      swap1\n      0x0100\n      exp\n      swap1\n      div\n      0xff\n      and\n      swap1\n      dup1\n      0x03\n      add\n      0x00\n      swap1\n      sload\n      swap1\n      0x0100\n      exp\n      swap1\n      div\n      0xffffffffffffffffffffffffffffffffffffffff\n      and\n      swap1\n      dup1\n      0x03\n      add\n      0x14\n      swap1\n      sload\n      swap1\n      0x0100\n      exp\n      swap1\n      div\n      0xff\n      and\n      swap1\n      pop\n      dup7\n      jump\t// out\n        /* \"Decentralized Marketplace.sol\":1396:1873  function acceptOffer(uint _itemId) public {... */\n    tag_30:\n        /* \"Decentralized Marketplace.sol\":1457:1462  items */\n      0x00\n        /* \"Decentralized Marketplace.sol\":1457:1471  items[_itemId] */\n      dup1\n        /* \"Decentralized Marketplace.sol\":1463:1470  _itemId */\n      dup3\n        /* \"Decentralized Marketplace.sol\":1457:1471  items[_itemId] */\n      dup2\n      mstore\n      0x20\n      add\n      swap1\n      dup2\n      mstore\n      0x20\n      add\n      0x00\n      keccak256\n        /* \"Decentralized Marketplace.sol\":1457:1483  items[_itemId].isAvailable */\n      0x02\n      add\n      0x14\n      swap1\n      sload\n      swap1\n      0x0100\n      exp\n      swap1\n      div\n      0xff\n      and\n        /* \"Decentralized Marketplace.sol\":1449:1509  require(items[_itemId].isAvailable, \"Item is not available\") */\n      tag_59\n      jumpi\n      mload(0x40)\n      0x08c379a000000000000000000000000000000000000000000000000000000000\n      dup2\n      mstore\n      0x04\n      add\n      tag_60\n      swap1\n      tag_44\n      jump\t// in\n    tag_60:\n      mload(0x40)\n      dup1\n      swap2\n      sub\n      swap1\n      revert\n    tag_59:\n        /* \"Decentralized Marketplace.sol\":1552:1562  msg.sender */\n      caller\n        /* \"Decentralized Marketplace.sol\":1528:1562  items[_itemId].owner == msg.sender */\n      0xffffffffffffffffffffffffffffffffffffffff\n      and\n        /* \"Decentralized Marketplace.sol\":1528:1533  items */\n      0x00\n        /* \"Decentralized Marketplace.sol\":1528:1542  items[_itemId] */\n      dup1\n        /* \"Decentralized Marketplace.sol\":1534:1541  _itemId */\n      dup4\n        /* \"Decentralized Marketplace.sol\":1528:1542  items[_itemId] */\n      dup2\n      mstore\n      0x20\n      add\n      swap1\n      dup2\n      mstore\n      0x20\n      add\n      0x00\n      keccak256\n        /* \"Decentralized Marketplace.sol\":1528:1548  items[_itemId].owner */\n      0x02\n      add\n      0x00\n      swap1\n      sload\n      swap1\n      0x0100\n      exp\n      swap1\n      div\n      0xffffffffffffffffffffffffffffffffffffffff\n      and\n        /* \"Decentralized Marketplace.sol\":1528:1562  items[_itemId].owner == msg.sender */\n      0xffffffffffffffffffffffffffffffffffffffff\n      and\n      eq\n        /* \"Decentralized Marketplace.sol\":1520:1597  require(items[_itemId].owner == msg.sender, \"Only owner can accept an offer\") */\n      tag_61\n      jumpi\n      mload(0x40)\n      0x08c379a000000000000000000000000000000000000000000000000000000000\n      dup2\n      mstore\n      0x04\n      add\n      tag_62\n      swap1\n      tag_63\n      jump\t// in\n    tag_62:\n      mload(0x40)\n      dup1\n      swap2\n      sub\n      swap1\n      revert\n    tag_61:\n        /* \"Decentralized Marketplace.sol\":1616:1621  items */\n      0x00\n        /* \"Decentralized Marketplace.sol\":1616:1630  items[_itemId] */\n      dup1\n        /* \"Decentralized Marketplace.sol\":1622:1629  _itemId */\n      dup3\n        /* \"Decentralized Marketplace.sol\":1616:1630  items[_itemId] */\n      dup2\n      mstore\n      0x20\n      add\n      swap1\n      dup2\n      mstore\n      0x20\n      add\n      0x00\n      keccak256\n        /* \"Decentralized Marketplace.sol\":1616:1641  items[_itemId].isAccepted */\n      0x03\n      add\n      0x14\n      swap1\n      sload\n      swap1\n      0x0100\n      exp\n      swap1\n      div\n      0xff\n      and\n        /* \"Decentralized Marketplace.sol\":1608:1668  require(items[_itemId].isAccepted, \"No offer has been made\") */\n      tag_64\n      jumpi\n      mload(0x40)\n      0x08c379a000000000000000000000000000000000000000000000000000000000\n      dup2\n      mstore\n      0x04\n      add\n      tag_65\n      swap1\n      tag_66\n      jump\t// in\n    tag_65:\n      mload(0x40)\n      dup1\n      swap2\n      sub\n      swap1\n      revert\n    tag_64:\n        /* \"Decentralized Marketplace.sol\":1687:1692  items */\n      0x00\n        /* \"Decentralized Marketplace.sol\":1687:1701  items[_itemId] */\n      dup1\n        /* \"Decentralized Marketplace.sol\":1693:1700  _itemId */\n      dup3\n        /* \"Decentralized Marketplace.sol\":1687:1701  items[_itemId] */\n      dup2\n      mstore\n      0x20\n      add\n      swap1\n      dup2\n      mstore\n      0x20\n      add\n      0x00\n      keccak256\n        /* \"Decentralized Marketplace.sol\":1687:1707  items[_itemId].owner */\n      0x02\n      add\n      0x00\n      swap1\n      sload\n      swap1\n      0x0100\n      exp\n      swap1\n      div\n      0xffffffffffffffffffffffffffffffffffffffff\n      and\n        /* \"Decentralized Marketplace.sol\":1679:1717  payable(items[_itemId].owner).transfer */\n      0xffffffffffffffffffffffffffffffffffffffff\n      and\n        /* \"Decentralized Marketplace.sol\":1679:1739  payable(items[_itemId].owner).transfer(items[_itemId].price) */\n      0x08fc\n        /* \"Decentralized Marketplace.sol\":1718:1723  items */\n      0x00\n        /* \"Decentralized Marketplace.sol\":1718:1732  items[_itemId] */\n      dup1\n        /* \"Decentralized Marketplace.sol\":1724:1731  _itemId */\n      dup5\n        /* \"Decentralized Marketplace.sol\":1718:1732  items[_itemId] */\n      dup2\n      mstore\n      0x20\n      add\n      swap1\n      dup2\n      mstore\n      0x20\n      add\n      0x00\n      keccak256\n        /* \"Decentralized Marketplace.sol\":1718:1738  items[_itemId].price */\n      0x01\n      add\n      sload\n        /* \"Decentralized Marketplace.sol\":1679:1739  payable(items[_itemId].owner).transfer(items[_itemId].price) */\n      swap1\n      dup2\n      iszero\n      mul\n      swap1\n      mload(0x40)\n      0x00\n      mload(0x40)\n      dup1\n      dup4\n      sub\n      dup2\n      dup6\n      dup9\n      dup9\n      call\n      swap4\n      pop\n      pop\n      pop\n      pop\n      iszero\n      dup1\n      iszero\n      tag_68\n      jumpi\n      returndatasize\n      0x00\n      dup1\n      returndatacopy\n      revert(0x00, returndatasize)\n    tag_68:\n      pop\n        /* \"Decentralized Marketplace.sol\":1779:1784  false */\n      0x00\n        /* \"Decentralized Marketplace.sol\":1750:1755  items */\n      dup1\n        /* \"Decentralized Marketplace.sol\":1750:1764  items[_itemId] */\n      0x00\n        /* \"Decentralized Marketplace.sol\":1756:1763  _itemId */\n      dup4\n        /* \"Decentralized Marketplace.sol\":1750:1764  items[_itemId] */\n      dup2\n      mstore\n      0x20\n      add\n      swap1\n      dup2\n      mstore\n      0x20\n      add\n      0x00\n      keccak256\n        /* \"Decentralized Marketplace.sol\":1750:1776  items[_itemId].isAvailable */\n      0x02\n      add\n      0x14\n        /* \"Decentralized Marketplace.sol\":1750:1784  items[_itemId].isAvailable = false */\n      0x0100\n      exp\n      dup2\n      sload\n      dup2\n      0xff\n      mul\n      not\n      and\n      swap1\n      dup4\n      iszero\n      iszero\n      mul\n      or\n      swap1\n      sstore\n      pop\n        /* \"Decentralized Marketplace.sol\":1844:1849  items */\n      0x00\n        /* \"Decentralized Marketplace.sol\":1844:1858  items[_itemId] */\n      dup1\n        /* \"Decentralized Marketplace.sol\":1850:1857  _itemId */\n      dup3\n        /* \"Decentralized Marketplace.sol\":1844:1858  items[_itemId] */\n      dup2\n      mstore\n      0x20\n      add\n      swap1\n      dup2\n      mstore\n      0x20\n      add\n      0x00\n      keccak256\n        /* \"Decentralized Marketplace.sol\":1844:1864  items[_itemId].buyer */\n      0x03\n      add\n      0x00\n      swap1\n      sload\n      swap1\n      0x0100\n      exp\n      swap1\n      div\n      0xffffffffffffffffffffffffffffffffffffffff\n      and\n        /* \"Decentralized Marketplace.sol\":1800:1865  ItemAccepted(_itemId, items[_itemId].owner, items[_itemId].buyer) */\n      0xffffffffffffffffffffffffffffffffffffffff\n      and\n        /* \"Decentralized Marketplace.sol\":1822:1827  items */\n      0x00\n        /* \"Decentralized Marketplace.sol\":1822:1836  items[_itemId] */\n      dup1\n        /* \"Decentralized Marketplace.sol\":1828:1835  _itemId */\n      dup4\n        /* \"Decentralized Marketplace.sol\":1822:1836  items[_itemId] */\n      dup2\n      mstore\n      0x20\n      add\n      swap1\n      dup2\n      mstore\n      0x20\n      add\n      0x00\n      keccak256\n        /* \"Decentralized Marketplace.sol\":1822:1842  items[_itemId].owner */\n      0x02\n      add\n      0x00\n      swap1\n      sload\n      swap1\n      0x0100\n      exp\n      swap1\n      div\n      0xffffffffffffffffffffffffffffffffffffffff\n      and\n        /* \"Decentralized Marketplace.sol\":1800:1865  ItemAccepted(_itemId, items[_itemId].owner, items[_itemId].buyer) */\n      0xffffffffffffffffffffffffffffffffffffffff\n      and\n        /* \"Decentralized Marketplace.sol\":1813:1820  _itemId */\n      dup3\n        /* \"Decentralized Marketplace.sol\":1800:1865  ItemAccepted(_itemId, items[_itemId].owner, items[_itemId].buyer) */\n      0xfabc3f15d66b421ab6f3492a35e9bd78bfbb7d888e5bb112f911ef9a5331eac1\n      mload(0x40)\n      mload(0x40)\n      dup1\n      swap2\n      sub\n      swap1\n      log4\n        /* \"Decentralized Marketplace.sol\":1396:1873  function acceptOffer(uint _itemId) public {... */\n      pop\n      jump\t// out\n        /* \"#utility.yul\":7:84   */\n    tag_69:\n        /* \"#utility.yul\":44:51   */\n      0x00\n        /* \"#utility.yul\":73:78   */\n      dup2\n        /* \"#utility.yul\":62:78   */\n      swap1\n      pop\n        /* \"#utility.yul\":7:84   */\n      swap2\n      swap1\n      pop\n      jump\t// out\n        /* \"#utility.yul\":90:208   */\n    tag_70:\n        /* \"#utility.yul\":177:201   */\n      tag_127\n        /* \"#utility.yul\":195:200   */\n      dup2\n        /* \"#utility.yul\":177:201   */\n      tag_69\n      jump\t// in\n    tag_127:\n        /* \"#utility.yul\":172:175   */\n      dup3\n        /* \"#utility.yul\":165:202   */\n      mstore\n        /* \"#utility.yul\":90:208   */\n      pop\n      pop\n      jump\t// out\n        /* \"#utility.yul\":214:436   */\n    tag_11:\n        /* \"#utility.yul\":307:311   */\n      0x00\n        /* \"#utility.yul\":345:347   */\n      0x20\n        /* \"#utility.yul\":334:343   */\n      dup3\n        /* \"#utility.yul\":330:348   */\n      add\n        /* \"#utility.yul\":322:348   */\n      swap1\n      pop\n        /* \"#utility.yul\":358:429   */\n      tag_129\n        /* \"#utility.yul\":426:427   */\n      0x00\n        /* \"#utility.yul\":415:424   */\n      dup4\n        /* \"#utility.yul\":411:428   */\n      add\n        /* \"#utility.yul\":402:408   */\n      dup5\n        /* \"#utility.yul\":358:429   */\n      tag_70\n      jump\t// in\n    tag_129:\n        /* \"#utility.yul\":214:436   */\n      swap3\n      swap2\n      pop\n      pop\n      jump\t// out\n        /* \"#utility.yul\":442:517   */\n    tag_71:\n        /* \"#utility.yul\":475:481   */\n      0x00\n        /* \"#utility.yul\":508:510   */\n      0x40\n        /* \"#utility.yul\":502:511   */\n      mload\n        /* \"#utility.yul\":492:511   */\n      swap1\n      pop\n        /* \"#utility.yul\":442:517   */\n      swap1\n      jump\t// out\n        /* \"#utility.yul\":523:640   */\n    tag_72:\n        /* \"#utility.yul\":632:633   */\n      0x00\n        /* \"#utility.yul\":629:630   */\n      dup1\n        /* \"#utility.yul\":622:634   */\n      revert\n        /* \"#utility.yul\":646:763   */\n    tag_73:\n        /* \"#utility.yul\":755:756   */\n      0x00\n        /* \"#utility.yul\":752:753   */\n      dup1\n        /* \"#utility.yul\":745:757   */\n      revert\n        /* \"#utility.yul\":769:886   */\n    tag_74:\n        /* \"#utility.yul\":878:879   */\n      0x00\n        /* \"#utility.yul\":875:876   */\n      dup1\n        /* \"#utility.yul\":868:880   */\n      revert\n        /* \"#utility.yul\":892:1009   */\n    tag_75:\n        /* \"#utility.yul\":1001:1002   */\n      0x00\n        /* \"#utility.yul\":998:999   */\n      dup1\n        /* \"#utility.yul\":991:1003   */\n      revert\n        /* \"#utility.yul\":1015:1117   */\n    tag_76:\n        /* \"#utility.yul\":1056:1062   */\n      0x00\n        /* \"#utility.yul\":1107:1109   */\n      0x1f\n        /* \"#utility.yul\":1103:1110   */\n      not\n        /* \"#utility.yul\":1098:1100   */\n      0x1f\n        /* \"#utility.yul\":1091:1096   */\n      dup4\n        /* \"#utility.yul\":1087:1101   */\n      add\n        /* \"#utility.yul\":1083:1111   */\n      and\n        /* \"#utility.yul\":1073:1111   */\n      swap1\n      pop\n        /* \"#utility.yul\":1015:1117   */\n      swap2\n      swap1\n      pop\n      jump\t// out\n        /* \"#utility.yul\":1123:1303   */\n    tag_77:\n        /* \"#utility.yul\":1171:1248   */\n      0x4e487b7100000000000000000000000000000000000000000000000000000000\n        /* \"#utility.yul\":1168:1169   */\n      0x00\n        /* \"#utility.yul\":1161:1249   */\n      mstore\n        /* \"#utility.yul\":1268:1272   */\n      0x41\n        /* \"#utility.yul\":1265:1266   */\n      0x04\n        /* \"#utility.yul\":1258:1273   */\n      mstore\n        /* \"#utility.yul\":1292:1296   */\n      0x24\n        /* \"#utility.yul\":1289:1290   */\n      0x00\n        /* \"#utility.yul\":1282:1297   */\n      revert\n        /* \"#utility.yul\":1309:1590   */\n    tag_78:\n        /* \"#utility.yul\":1392:1419   */\n      tag_138\n        /* \"#utility.yul\":1414:1418   */\n      dup3\n        /* \"#utility.yul\":1392:1419   */\n      tag_76\n      jump\t// in\n    tag_138:\n        /* \"#utility.yul\":1384:1390   */\n      dup2\n        /* \"#utility.yul\":1380:1420   */\n      add\n        /* \"#utility.yul\":1522:1528   */\n      dup2\n        /* \"#utility.yul\":1510:1520   */\n      dup2\n        /* \"#utility.yul\":1507:1529   */\n      lt\n        /* \"#utility.yul\":1486:1504   */\n      0xffffffffffffffff\n        /* \"#utility.yul\":1474:1484   */\n      dup3\n        /* \"#utility.yul\":1471:1505   */\n      gt\n        /* \"#utility.yul\":1468:1530   */\n      or\n        /* \"#utility.yul\":1465:1553   */\n      iszero\n      tag_139\n      jumpi\n        /* \"#utility.yul\":1533:1551   */\n      tag_140\n      tag_77\n      jump\t// in\n    tag_140:\n        /* \"#utility.yul\":1465:1553   */\n    tag_139:\n        /* \"#utility.yul\":1573:1583   */\n      dup1\n        /* \"#utility.yul\":1569:1571   */\n      0x40\n        /* \"#utility.yul\":1562:1584   */\n      mstore\n        /* \"#utility.yul\":1352:1590   */\n      pop\n        /* \"#utility.yul\":1309:1590   */\n      pop\n      pop\n      jump\t// out\n        /* \"#utility.yul\":1596:1725   */\n    tag_79:\n        /* \"#utility.yul\":1630:1636   */\n      0x00\n        /* \"#utility.yul\":1657:1677   */\n      tag_142\n      tag_71\n      jump\t// in\n    tag_142:\n        /* \"#utility.yul\":1647:1677   */\n      swap1\n      pop\n        /* \"#utility.yul\":1686:1719   */\n      tag_143\n        /* \"#utility.yul\":1714:1718   */\n      dup3\n        /* \"#utility.yul\":1706:1712   */\n      dup3\n        /* \"#utility.yul\":1686:1719   */\n      tag_78\n      jump\t// in\n    tag_143:\n        /* \"#utility.yul\":1596:1725   */\n      swap2\n      swap1\n      pop\n      jump\t// out\n        /* \"#utility.yul\":1731:2039   */\n    tag_80:\n        /* \"#utility.yul\":1793:1797   */\n      0x00\n        /* \"#utility.yul\":1883:1901   */\n      0xffffffffffffffff\n        /* \"#utility.yul\":1875:1881   */\n      dup3\n        /* \"#utility.yul\":1872:1902   */\n      gt\n        /* \"#utility.yul\":1869:1925   */\n      iszero\n      tag_145\n      jumpi\n        /* \"#utility.yul\":1905:1923   */\n      tag_146\n      tag_77\n      jump\t// in\n    tag_146:\n        /* \"#utility.yul\":1869:1925   */\n    tag_145:\n        /* \"#utility.yul\":1943:1972   */\n      tag_147\n        /* \"#utility.yul\":1965:1971   */\n      dup3\n        /* \"#utility.yul\":1943:1972   */\n      tag_76\n      jump\t// in\n    tag_147:\n        /* \"#utility.yul\":1935:1972   */\n      swap1\n      pop\n        /* \"#utility.yul\":2027:2031   */\n      0x20\n        /* \"#utility.yul\":2021:2025   */\n      dup2\n        /* \"#utility.yul\":2017:2032   */\n      add\n        /* \"#utility.yul\":2009:2032   */\n      swap1\n      pop\n        /* \"#utility.yul\":1731:2039   */\n      swap2\n      swap1\n      pop\n      jump\t// out\n        /* \"#utility.yul\":2045:2191   */\n    tag_81:\n        /* \"#utility.yul\":2142:2148   */\n      dup3\n        /* \"#utility.yul\":2137:2140   */\n      dup2\n        /* \"#utility.yul\":2132:2135   */\n      dup4\n        /* \"#utility.yul\":2119:2149   */\n      calldatacopy\n        /* \"#utility.yul\":2183:2184   */\n      0x00\n        /* \"#utility.yul\":2174:2180   */\n      dup4\n        /* \"#utility.yul\":2169:2172   */\n      dup4\n        /* \"#utility.yul\":2165:2181   */\n      add\n        /* \"#utility.yul\":2158:2185   */\n      mstore\n        /* \"#utility.yul\":2045:2191   */\n      pop\n      pop\n      pop\n      jump\t// out\n        /* \"#utility.yul\":2197:2622   */\n    tag_82:\n        /* \"#utility.yul\":2275:2280   */\n      0x00\n        /* \"#utility.yul\":2300:2366   */\n      tag_150\n        /* \"#utility.yul\":2316:2365   */\n      tag_151\n        /* \"#utility.yul\":2358:2364   */\n      dup5\n        /* \"#utility.yul\":2316:2365   */\n      tag_80\n      jump\t// in\n    tag_151:\n        /* \"#utility.yul\":2300:2366   */\n      tag_79\n      jump\t// in\n    tag_150:\n        /* \"#utility.yul\":2291:2366   */\n      swap1\n      pop\n        /* \"#utility.yul\":2389:2395   */\n      dup3\n        /* \"#utility.yul\":2382:2387   */\n      dup2\n        /* \"#utility.yul\":2375:2396   */\n      mstore\n        /* \"#utility.yul\":2427:2431   */\n      0x20\n        /* \"#utility.yul\":2420:2425   */\n      dup2\n        /* \"#utility.yul\":2416:2432   */\n      add\n        /* \"#utility.yul\":2465:2468   */\n      dup5\n        /* \"#utility.yul\":2456:2462   */\n      dup5\n        /* \"#utility.yul\":2451:2454   */\n      dup5\n        /* \"#utility.yul\":2447:2463   */\n      add\n        /* \"#utility.yul\":2444:2469   */\n      gt\n        /* \"#utility.yul\":2441:2553   */\n      iszero\n      tag_152\n      jumpi\n        /* \"#utility.yul\":2472:2551   */\n      tag_153\n      tag_75\n      jump\t// in\n    tag_153:\n        /* \"#utility.yul\":2441:2553   */\n    tag_152:\n        /* \"#utility.yul\":2562:2616   */\n      tag_154\n        /* \"#utility.yul\":2609:2615   */\n      dup5\n        /* \"#utility.yul\":2604:2607   */\n      dup3\n        /* \"#utility.yul\":2599:2602   */\n      dup6\n        /* \"#utility.yul\":2562:2616   */\n      tag_81\n      jump\t// in\n    tag_154:\n        /* \"#utility.yul\":2281:2622   */\n      pop\n        /* \"#utility.yul\":2197:2622   */\n      swap4\n      swap3\n      pop\n      pop\n      pop\n      jump\t// out\n        /* \"#utility.yul\":2642:2982   */\n    tag_83:\n        /* \"#utility.yul\":2698:2703   */\n      0x00\n        /* \"#utility.yul\":2747:2750   */\n      dup3\n        /* \"#utility.yul\":2740:2744   */\n      0x1f\n        /* \"#utility.yul\":2732:2738   */\n      dup4\n        /* \"#utility.yul\":2728:2745   */\n      add\n        /* \"#utility.yul\":2724:2751   */\n      slt\n        /* \"#utility.yul\":2714:2836   */\n      tag_156\n      jumpi\n        /* \"#utility.yul\":2755:2834   */\n      tag_157\n      tag_74\n      jump\t// in\n    tag_157:\n        /* \"#utility.yul\":2714:2836   */\n    tag_156:\n        /* \"#utility.yul\":2872:2878   */\n      dup2\n        /* \"#utility.yul\":2859:2879   */\n      calldataload\n        /* \"#utility.yul\":2897:2976   */\n      tag_158\n        /* \"#utility.yul\":2972:2975   */\n      dup5\n        /* \"#utility.yul\":2964:2970   */\n      dup3\n        /* \"#utility.yul\":2957:2961   */\n      0x20\n        /* \"#utility.yul\":2949:2955   */\n      dup7\n        /* \"#utility.yul\":2945:2962   */\n      add\n        /* \"#utility.yul\":2897:2976   */\n      tag_82\n      jump\t// in\n    tag_158:\n        /* \"#utility.yul\":2888:2976   */\n      swap2\n      pop\n        /* \"#utility.yul\":2704:2982   */\n      pop\n        /* \"#utility.yul\":2642:2982   */\n      swap3\n      swap2\n      pop\n      pop\n      jump\t// out\n        /* \"#utility.yul\":2988:3110   */\n    tag_84:\n        /* \"#utility.yul\":3061:3085   */\n      tag_160\n        /* \"#utility.yul\":3079:3084   */\n      dup2\n        /* \"#utility.yul\":3061:3085   */\n      tag_69\n      jump\t// in\n    tag_160:\n        /* \"#utility.yul\":3054:3059   */\n      dup2\n        /* \"#utility.yul\":3051:3086   */\n      eq\n        /* \"#utility.yul\":3041:3104   */\n      tag_161\n      jumpi\n        /* \"#utility.yul\":3100:3101   */\n      0x00\n        /* \"#utility.yul\":3097:3098   */\n      dup1\n        /* \"#utility.yul\":3090:3102   */\n      revert\n        /* \"#utility.yul\":3041:3104   */\n    tag_161:\n        /* \"#utility.yul\":2988:3110   */\n      pop\n      jump\t// out\n        /* \"#utility.yul\":3116:3255   */\n    tag_85:\n        /* \"#utility.yul\":3162:3167   */\n      0x00\n        /* \"#utility.yul\":3200:3206   */\n      dup2\n        /* \"#utility.yul\":3187:3207   */\n      calldataload\n        /* \"#utility.yul\":3178:3207   */\n      swap1\n      pop\n        /* \"#utility.yul\":3216:3249   */\n      tag_163\n        /* \"#utility.yul\":3243:3248   */\n      dup2\n        /* \"#utility.yul\":3216:3249   */\n      tag_84\n      jump\t// in\n    tag_163:\n        /* \"#utility.yul\":3116:3255   */\n      swap3\n      swap2\n      pop\n      pop\n      jump\t// out\n        /* \"#utility.yul\":3261:3915   */\n    tag_15:\n        /* \"#utility.yul\":3339:3345   */\n      0x00\n        /* \"#utility.yul\":3347:3353   */\n      dup1\n        /* \"#utility.yul\":3396:3398   */\n      0x40\n        /* \"#utility.yul\":3384:3393   */\n      dup4\n        /* \"#utility.yul\":3375:3382   */\n      dup6\n        /* \"#utility.yul\":3371:3394   */\n      sub\n        /* \"#utility.yul\":3367:3399   */\n      slt\n        /* \"#utility.yul\":3364:3483   */\n      iszero\n      tag_165\n      jumpi\n        /* \"#utility.yul\":3402:3481   */\n      tag_166\n      tag_72\n      jump\t// in\n    tag_166:\n        /* \"#utility.yul\":3364:3483   */\n    tag_165:\n        /* \"#utility.yul\":3550:3551   */\n      0x00\n        /* \"#utility.yul\":3539:3548   */\n      dup4\n        /* \"#utility.yul\":3535:3552   */\n      add\n        /* \"#utility.yul\":3522:3553   */\n      calldataload\n        /* \"#utility.yul\":3580:3598   */\n      0xffffffffffffffff\n        /* \"#utility.yul\":3572:3578   */\n      dup2\n        /* \"#utility.yul\":3569:3599   */\n      gt\n        /* \"#utility.yul\":3566:3683   */\n      iszero\n      tag_167\n      jumpi\n        /* \"#utility.yul\":3602:3681   */\n      tag_168\n      tag_73\n      jump\t// in\n    tag_168:\n        /* \"#utility.yul\":3566:3683   */\n    tag_167:\n        /* \"#utility.yul\":3707:3770   */\n      tag_169\n        /* \"#utility.yul\":3762:3769   */\n      dup6\n        /* \"#utility.yul\":3753:3759   */\n      dup3\n        /* \"#utility.yul\":3742:3751   */\n      dup7\n        /* \"#utility.yul\":3738:3760   */\n      add\n        /* \"#utility.yul\":3707:3770   */\n      tag_83\n      jump\t// in\n    tag_169:\n        /* \"#utility.yul\":3697:3770   */\n      swap3\n      pop\n        /* \"#utility.yul\":3493:3780   */\n      pop\n        /* \"#utility.yul\":3819:3821   */\n      0x20\n        /* \"#utility.yul\":3845:3898   */\n      tag_170\n        /* \"#utility.yul\":3890:3897   */\n      dup6\n        /* \"#utility.yul\":3881:3887   */\n      dup3\n        /* \"#utility.yul\":3870:3879   */\n      dup7\n        /* \"#utility.yul\":3866:3888   */\n      add\n        /* \"#utility.yul\":3845:3898   */\n      tag_85\n      jump\t// in\n    tag_170:\n        /* \"#utility.yul\":3835:3898   */\n      swap2\n      pop\n        /* \"#utility.yul\":3790:3908   */\n      pop\n        /* \"#utility.yul\":3261:3915   */\n      swap3\n      pop\n      swap3\n      swap1\n      pop\n      jump\t// out\n        /* \"#utility.yul\":3921:4250   */\n    tag_19:\n        /* \"#utility.yul\":3980:3986   */\n      0x00\n        /* \"#utility.yul\":4029:4031   */\n      0x20\n        /* \"#utility.yul\":4017:4026   */\n      dup3\n        /* \"#utility.yul\":4008:4015   */\n      dup5\n        /* \"#utility.yul\":4004:4027   */\n      sub\n        /* \"#utility.yul\":4000:4032   */\n      slt\n        /* \"#utility.yul\":3997:4116   */\n      iszero\n      tag_172\n      jumpi\n        /* \"#utility.yul\":4035:4114   */\n      tag_173\n      tag_72\n      jump\t// in\n    tag_173:\n        /* \"#utility.yul\":3997:4116   */\n    tag_172:\n        /* \"#utility.yul\":4155:4156   */\n      0x00\n        /* \"#utility.yul\":4180:4233   */\n      tag_174\n        /* \"#utility.yul\":4225:4232   */\n      dup5\n        /* \"#utility.yul\":4216:4222   */\n      dup3\n        /* \"#utility.yul\":4205:4214   */\n      dup6\n        /* \"#utility.yul\":4201:4223   */\n      add\n        /* \"#utility.yul\":4180:4233   */\n      tag_85\n      jump\t// in\n    tag_174:\n        /* \"#utility.yul\":4170:4233   */\n      swap2\n      pop\n        /* \"#utility.yul\":4126:4243   */\n      pop\n        /* \"#utility.yul\":3921:4250   */\n      swap3\n      swap2\n      pop\n      pop\n      jump\t// out\n        /* \"#utility.yul\":4256:4355   */\n    tag_86:\n        /* \"#utility.yul\":4308:4314   */\n      0x00\n        /* \"#utility.yul\":4342:4347   */\n      dup2\n        /* \"#utility.yul\":4336:4348   */\n      mload\n        /* \"#utility.yul\":4326:4348   */\n      swap1\n      pop\n        /* \"#utility.yul\":4256:4355   */\n      swap2\n      swap1\n      pop\n      jump\t// out\n        /* \"#utility.yul\":4361:4530   */\n    tag_87:\n        /* \"#utility.yul\":4445:4456   */\n      0x00\n        /* \"#utility.yul\":4479:4485   */\n      dup3\n        /* \"#utility.yul\":4474:4477   */\n      dup3\n        /* \"#utility.yul\":4467:4486   */\n      mstore\n        /* \"#utility.yul\":4519:4523   */\n      0x20\n        /* \"#utility.yul\":4514:4517   */\n      dup3\n        /* \"#utility.yul\":4510:4524   */\n      add\n        /* \"#utility.yul\":4495:4524   */\n      swap1\n      pop\n        /* \"#utility.yul\":4361:4530   */\n      swap3\n      swap2\n      pop\n      pop\n      jump\t// out\n        /* \"#utility.yul\":4536:4782   */\n    tag_88:\n        /* \"#utility.yul\":4617:4618   */\n      0x00\n        /* \"#utility.yul\":4627:4740   */\n    tag_178:\n        /* \"#utility.yul\":4641:4647   */\n      dup4\n        /* \"#utility.yul\":4638:4639   */\n      dup2\n        /* \"#utility.yul\":4635:4648   */\n      lt\n        /* \"#utility.yul\":4627:4740   */\n      iszero\n      tag_180\n      jumpi\n        /* \"#utility.yul\":4726:4727   */\n      dup1\n        /* \"#utility.yul\":4721:4724   */\n      dup3\n        /* \"#utility.yul\":4717:4728   */\n      add\n        /* \"#utility.yul\":4711:4729   */\n      mload\n        /* \"#utility.yul\":4707:4708   */\n      dup2\n        /* \"#utility.yul\":4702:4705   */\n      dup5\n        /* \"#utility.yul\":4698:4709   */\n      add\n        /* \"#utility.yul\":4691:4730   */\n      mstore\n        /* \"#utility.yul\":4663:4665   */\n      0x20\n        /* \"#utility.yul\":4660:4661   */\n      dup2\n        /* \"#utility.yul\":4656:4666   */\n      add\n        /* \"#utility.yul\":4651:4666   */\n      swap1\n      pop\n        /* \"#utility.yul\":4627:4740   */\n      jump(tag_178)\n    tag_180:\n        /* \"#utility.yul\":4774:4775   */\n      0x00\n        /* \"#utility.yul\":4765:4771   */\n      dup5\n        /* \"#utility.yul\":4760:4763   */\n      dup5\n        /* \"#utility.yul\":4756:4772   */\n      add\n        /* \"#utility.yul\":4749:4776   */\n      mstore\n        /* \"#utility.yul\":4598:4782   */\n      pop\n        /* \"#utility.yul\":4536:4782   */\n      pop\n      pop\n      pop\n      jump\t// out\n        /* \"#utility.yul\":4788:5165   */\n    tag_89:\n        /* \"#utility.yul\":4876:4879   */\n      0x00\n        /* \"#utility.yul\":4904:4943   */\n      tag_182\n        /* \"#utility.yul\":4937:4942   */\n      dup3\n        /* \"#utility.yul\":4904:4943   */\n      tag_86\n      jump\t// in\n    tag_182:\n        /* \"#utility.yul\":4959:5030   */\n      tag_183\n        /* \"#utility.yul\":5023:5029   */\n      dup2\n        /* \"#utility.yul\":5018:5021   */\n      dup6\n        /* \"#utility.yul\":4959:5030   */\n      tag_87\n      jump\t// in\n    tag_183:\n        /* \"#utility.yul\":4952:5030   */\n      swap4\n      pop\n        /* \"#utility.yul\":5039:5104   */\n      tag_184\n        /* \"#utility.yul\":5097:5103   */\n      dup2\n        /* \"#utility.yul\":5092:5095   */\n      dup6\n        /* \"#utility.yul\":5085:5089   */\n      0x20\n        /* \"#utility.yul\":5078:5083   */\n      dup7\n        /* \"#utility.yul\":5074:5090   */\n      add\n        /* \"#utility.yul\":5039:5104   */\n      tag_88\n      jump\t// in\n    tag_184:\n        /* \"#utility.yul\":5129:5158   */\n      tag_185\n        /* \"#utility.yul\":5151:5157   */\n      dup2\n        /* \"#utility.yul\":5129:5158   */\n      tag_76\n      jump\t// in\n    tag_185:\n        /* \"#utility.yul\":5124:5127   */\n      dup5\n        /* \"#utility.yul\":5120:5159   */\n      add\n        /* \"#utility.yul\":5113:5159   */\n      swap2\n      pop\n        /* \"#utility.yul\":4880:5165   */\n      pop\n        /* \"#utility.yul\":4788:5165   */\n      swap3\n      swap2\n      pop\n      pop\n      jump\t// out\n        /* \"#utility.yul\":5171:5297   */\n    tag_90:\n        /* \"#utility.yul\":5208:5215   */\n      0x00\n        /* \"#utility.yul\":5248:5290   */\n      0xffffffffffffffffffffffffffffffffffffffff\n        /* \"#utility.yul\":5241:5246   */\n      dup3\n        /* \"#utility.yul\":5237:5291   */\n      and\n        /* \"#utility.yul\":5226:5291   */\n      swap1\n      pop\n        /* \"#utility.yul\":5171:5297   */\n      swap2\n      swap1\n      pop\n      jump\t// out\n        /* \"#utility.yul\":5303:5399   */\n    tag_91:\n        /* \"#utility.yul\":5340:5347   */\n      0x00\n        /* \"#utility.yul\":5369:5393   */\n      tag_188\n        /* \"#utility.yul\":5387:5392   */\n      dup3\n        /* \"#utility.yul\":5369:5393   */\n      tag_90\n      jump\t// in\n    tag_188:\n        /* \"#utility.yul\":5358:5393   */\n      swap1\n      pop\n        /* \"#utility.yul\":5303:5399   */\n      swap2\n      swap1\n      pop\n      jump\t// out\n        /* \"#utility.yul\":5405:5523   */\n    tag_92:\n        /* \"#utility.yul\":5492:5516   */\n      tag_190\n        /* \"#utility.yul\":5510:5515   */\n      dup2\n        /* \"#utility.yul\":5492:5516   */\n      tag_91\n      jump\t// in\n    tag_190:\n        /* \"#utility.yul\":5487:5490   */\n      dup3\n        /* \"#utility.yul\":5480:5517   */\n      mstore\n        /* \"#utility.yul\":5405:5523   */\n      pop\n      pop\n      jump\t// out\n        /* \"#utility.yul\":5529:5619   */\n    tag_93:\n        /* \"#utility.yul\":5563:5570   */\n      0x00\n        /* \"#utility.yul\":5606:5611   */\n      dup2\n        /* \"#utility.yul\":5599:5612   */\n      iszero\n        /* \"#utility.yul\":5592:5613   */\n      iszero\n        /* \"#utility.yul\":5581:5613   */\n      swap1\n      pop\n        /* \"#utility.yul\":5529:5619   */\n      swap2\n      swap1\n      pop\n      jump\t// out\n        /* \"#utility.yul\":5625:5734   */\n    tag_94:\n        /* \"#utility.yul\":5706:5727   */\n      tag_193\n        /* \"#utility.yul\":5721:5726   */\n      dup2\n        /* \"#utility.yul\":5706:5727   */\n      tag_93\n      jump\t// in\n    tag_193:\n        /* \"#utility.yul\":5701:5704   */\n      dup3\n        /* \"#utility.yul\":5694:5728   */\n      mstore\n        /* \"#utility.yul\":5625:5734   */\n      pop\n      pop\n      jump\t// out\n        /* \"#utility.yul\":5740:6582   */\n    tag_26:\n        /* \"#utility.yul\":5981:5985   */\n      0x00\n        /* \"#utility.yul\":6019:6022   */\n      0xc0\n        /* \"#utility.yul\":6008:6017   */\n      dup3\n        /* \"#utility.yul\":6004:6023   */\n      add\n        /* \"#utility.yul\":5996:6023   */\n      swap1\n      pop\n        /* \"#utility.yul\":6069:6078   */\n      dup2\n        /* \"#utility.yul\":6063:6067   */\n      dup2\n        /* \"#utility.yul\":6059:6079   */\n      sub\n        /* \"#utility.yul\":6055:6056   */\n      0x00\n        /* \"#utility.yul\":6044:6053   */\n      dup4\n        /* \"#utility.yul\":6040:6057   */\n      add\n        /* \"#utility.yul\":6033:6080   */\n      mstore\n        /* \"#utility.yul\":6097:6175   */\n      tag_195\n        /* \"#utility.yul\":6170:6174   */\n      dup2\n        /* \"#utility.yul\":6161:6167   */\n      dup10\n        /* \"#utility.yul\":6097:6175   */\n      tag_89\n      jump\t// in\n    tag_195:\n        /* \"#utility.yul\":6089:6175   */\n      swap1\n      pop\n        /* \"#utility.yul\":6185:6257   */\n      tag_196\n        /* \"#utility.yul\":6253:6255   */\n      0x20\n        /* \"#utility.yul\":6242:6251   */\n      dup4\n        /* \"#utility.yul\":6238:6256   */\n      add\n        /* \"#utility.yul\":6229:6235   */\n      dup9\n        /* \"#utility.yul\":6185:6257   */\n      tag_70\n      jump\t// in\n    tag_196:\n        /* \"#utility.yul\":6267:6339   */\n      tag_197\n        /* \"#utility.yul\":6335:6337   */\n      0x40\n        /* \"#utility.yul\":6324:6333   */\n      dup4\n        /* \"#utility.yul\":6320:6338   */\n      add\n        /* \"#utility.yul\":6311:6317   */\n      dup8\n        /* \"#utility.yul\":6267:6339   */\n      tag_92\n      jump\t// in\n    tag_197:\n        /* \"#utility.yul\":6349:6415   */\n      tag_198\n        /* \"#utility.yul\":6411:6413   */\n      0x60\n        /* \"#utility.yul\":6400:6409   */\n      dup4\n        /* \"#utility.yul\":6396:6414   */\n      add\n        /* \"#utility.yul\":6387:6393   */\n      dup7\n        /* \"#utility.yul\":6349:6415   */\n      tag_94\n      jump\t// in\n    tag_198:\n        /* \"#utility.yul\":6425:6498   */\n      tag_199\n        /* \"#utility.yul\":6493:6496   */\n      0x80\n        /* \"#utility.yul\":6482:6491   */\n      dup4\n        /* \"#utility.yul\":6478:6497   */\n      add\n        /* \"#utility.yul\":6469:6475   */\n      dup6\n        /* \"#utility.yul\":6425:6498   */\n      tag_92\n      jump\t// in\n    tag_199:\n        /* \"#utility.yul\":6508:6575   */\n      tag_200\n        /* \"#utility.yul\":6570:6573   */\n      0xa0\n        /* \"#utility.yul\":6559:6568   */\n      dup4\n        /* \"#utility.yul\":6555:6574   */\n      add\n        /* \"#utility.yul\":6546:6552   */\n      dup5\n        /* \"#utility.yul\":6508:6575   */\n      tag_94\n      jump\t// in\n    tag_200:\n        /* \"#utility.yul\":5740:6582   */\n      swap8\n      swap7\n      pop\n      pop\n      pop\n      pop\n      pop\n      pop\n      pop\n      jump\t// out\n        /* \"#utility.yul\":6588:6766   */\n    tag_95:\n        /* \"#utility.yul\":6728:6758   */\n      0x5072696365206d7573742062652067726561746572207468616e203000000000\n        /* \"#utility.yul\":6724:6725   */\n      0x00\n        /* \"#utility.yul\":6716:6722   */\n      dup3\n        /* \"#utility.yul\":6712:6726   */\n      add\n        /* \"#utility.yul\":6705:6759   */\n      mstore\n        /* \"#utility.yul\":6588:6766   */\n      pop\n      jump\t// out\n        /* \"#utility.yul\":6772:7138   */\n    tag_96:\n        /* \"#utility.yul\":6914:6917   */\n      0x00\n        /* \"#utility.yul\":6935:7002   */\n      tag_203\n        /* \"#utility.yul\":6999:7001   */\n      0x1c\n        /* \"#utility.yul\":6994:6997   */\n      dup4\n        /* \"#utility.yul\":6935:7002   */\n      tag_87\n      jump\t// in\n    tag_203:\n        /* \"#utility.yul\":6928:7002   */\n      swap2\n      pop\n        /* \"#utility.yul\":7011:7104   */\n      tag_204\n        /* \"#utility.yul\":7100:7103   */\n      dup3\n        /* \"#utility.yul\":7011:7104   */\n      tag_95\n      jump\t// in\n    tag_204:\n        /* \"#utility.yul\":7129:7131   */\n      0x20\n        /* \"#utility.yul\":7124:7127   */\n      dup3\n        /* \"#utility.yul\":7120:7132   */\n      add\n        /* \"#utility.yul\":7113:7132   */\n      swap1\n      pop\n        /* \"#utility.yul\":6772:7138   */\n      swap2\n      swap1\n      pop\n      jump\t// out\n        /* \"#utility.yul\":7144:7563   */\n    tag_34:\n        /* \"#utility.yul\":7310:7314   */\n      0x00\n        /* \"#utility.yul\":7348:7350   */\n      0x20\n        /* \"#utility.yul\":7337:7346   */\n      dup3\n        /* \"#utility.yul\":7333:7351   */\n      add\n        /* \"#utility.yul\":7325:7351   */\n      swap1\n      pop\n        /* \"#utility.yul\":7397:7406   */\n      dup2\n        /* \"#utility.yul\":7391:7395   */\n      dup2\n        /* \"#utility.yul\":7387:7407   */\n      sub\n        /* \"#utility.yul\":7383:7384   */\n      0x00\n        /* \"#utility.yul\":7372:7381   */\n      dup4\n        /* \"#utility.yul\":7368:7385   */\n      add\n        /* \"#utility.yul\":7361:7408   */\n      mstore\n        /* \"#utility.yul\":7425:7556   */\n      tag_206\n        /* \"#utility.yul\":7551:7555   */\n      dup2\n        /* \"#utility.yul\":7425:7556   */\n      tag_96\n      jump\t// in\n    tag_206:\n        /* \"#utility.yul\":7417:7556   */\n      swap1\n      pop\n        /* \"#utility.yul\":7144:7563   */\n      swap2\n      swap1\n      pop\n      jump\t// out\n        /* \"#utility.yul\":7569:7749   */\n    tag_97:\n        /* \"#utility.yul\":7617:7694   */\n      0x4e487b7100000000000000000000000000000000000000000000000000000000\n        /* \"#utility.yul\":7614:7615   */\n      0x00\n        /* \"#utility.yul\":7607:7695   */\n      mstore\n        /* \"#utility.yul\":7714:7718   */\n      0x11\n        /* \"#utility.yul\":7711:7712   */\n      0x04\n        /* \"#utility.yul\":7704:7719   */\n      mstore\n        /* \"#utility.yul\":7738:7742   */\n      0x24\n        /* \"#utility.yul\":7735:7736   */\n      0x00\n        /* \"#utility.yul\":7728:7743   */\n      revert\n        /* \"#utility.yul\":7755:7988   */\n    tag_36:\n        /* \"#utility.yul\":7794:7797   */\n      0x00\n        /* \"#utility.yul\":7817:7841   */\n      tag_209\n        /* \"#utility.yul\":7835:7840   */\n      dup3\n        /* \"#utility.yul\":7817:7841   */\n      tag_69\n      jump\t// in\n    tag_209:\n        /* \"#utility.yul\":7808:7841   */\n      swap2\n      pop\n        /* \"#utility.yul\":7863:7929   */\n      0xffffffffffffffffffffffffffffffffffffffffffffffffffffffffffffffff\n        /* \"#utility.yul\":7856:7861   */\n      dup3\n        /* \"#utility.yul\":7853:7930   */\n      sub\n        /* \"#utility.yul\":7850:7953   */\n      tag_210\n      jumpi\n        /* \"#utility.yul\":7933:7951   */\n      tag_211\n      tag_97\n      jump\t// in\n    tag_211:\n        /* \"#utility.yul\":7850:7953   */\n    tag_210:\n        /* \"#utility.yul\":7980:7981   */\n      0x01\n        /* \"#utility.yul\":7973:7978   */\n      dup3\n        /* \"#utility.yul\":7969:7982   */\n      add\n        /* \"#utility.yul\":7962:7982   */\n      swap1\n      pop\n        /* \"#utility.yul\":7755:7988   */\n      swap2\n      swap1\n      pop\n      jump\t// out\n        /* \"#utility.yul\":7994:8174   */\n    tag_98:\n        /* \"#utility.yul\":8042:8119   */\n      0x4e487b7100000000000000000000000000000000000000000000000000000000\n        /* \"#utility.yul\":8039:8040   */\n      0x00\n        /* \"#utility.yul\":8032:8120   */\n      mstore\n        /* \"#utility.yul\":8139:8143   */\n      0x22\n        /* \"#utility.yul\":8136:8137   */\n      0x04\n        /* \"#utility.yul\":8129:8144   */\n      mstore\n        /* \"#utility.yul\":8163:8167   */\n      0x24\n        /* \"#utility.yul\":8160:8161   */\n      0x00\n        /* \"#utility.yul\":8153:8168   */\n      revert\n        /* \"#utility.yul\":8180:8500   */\n    tag_53:\n        /* \"#utility.yul\":8224:8230   */\n      0x00\n        /* \"#utility.yul\":8261:8262   */\n      0x02\n        /* \"#utility.yul\":8255:8259   */\n      dup3\n        /* \"#utility.yul\":8251:8263   */\n      div\n        /* \"#utility.yul\":8241:8263   */\n      swap1\n      pop\n        /* \"#utility.yul\":8308:8309   */\n      0x01\n        /* \"#utility.yul\":8302:8306   */\n      dup3\n        /* \"#utility.yul\":8298:8310   */\n      and\n        /* \"#utility.yul\":8329:8347   */\n      dup1\n        /* \"#utility.yul\":8319:8400   */\n      tag_214\n      jumpi\n        /* \"#utility.yul\":8385:8389   */\n      0x7f\n        /* \"#utility.yul\":8377:8383   */\n      dup3\n        /* \"#utility.yul\":8373:8390   */\n      and\n        /* \"#utility.yul\":8363:8390   */\n      swap2\n      pop\n        /* \"#utility.yul\":8319:8400   */\n    tag_214:\n        /* \"#utility.yul\":8447:8449   */\n      0x20\n        /* \"#utility.yul\":8439:8445   */\n      dup3\n        /* \"#utility.yul\":8436:8450   */\n      lt\n        /* \"#utility.yul\":8416:8434   */\n      dup2\n        /* \"#utility.yul\":8413:8451   */\n      sub\n        /* \"#utility.yul\":8410:8494   */\n      tag_215\n      jumpi\n        /* \"#utility.yul\":8466:8484   */\n      tag_216\n      tag_98\n      jump\t// in\n    tag_216:\n        /* \"#utility.yul\":8410:8494   */\n    tag_215:\n        /* \"#utility.yul\":8231:8500   */\n      pop\n        /* \"#utility.yul\":8180:8500   */\n      swap2\n      swap1\n      pop\n      jump\t// out\n        /* \"#utility.yul\":8506:8647   */\n    tag_99:\n        /* \"#utility.yul\":8555:8559   */\n      0x00\n        /* \"#utility.yul\":8578:8581   */\n      dup2\n        /* \"#utility.yul\":8570:8581   */\n      swap1\n      pop\n        /* \"#utility.yul\":8601:8604   */\n      dup2\n        /* \"#utility.yul\":8598:8599   */\n      0x00\n        /* \"#utility.yul\":8591:8605   */\n      mstore\n        /* \"#utility.yul\":8635:8639   */\n      0x20\n        /* \"#utility.yul\":8632:8633   */\n      0x00\n        /* \"#utility.yul\":8622:8640   */\n      keccak256\n        /* \"#utility.yul\":8614:8640   */\n      swap1\n      pop\n        /* \"#utility.yul\":8506:8647   */\n      swap2\n      swap1\n      pop\n      jump\t// out\n        /* \"#utility.yul\":8653:8746   */\n    tag_100:\n        /* \"#utility.yul\":8690:8696   */\n      0x00\n        /* \"#utility.yul\":8737:8739   */\n      0x20\n        /* \"#utility.yul\":8732:8734   */\n      0x1f\n        /* \"#utility.yul\":8725:8730   */\n      dup4\n        /* \"#utility.yul\":8721:8735   */\n      add\n        /* \"#utility.yul\":8717:8740   */\n      div\n        /* \"#utility.yul\":8707:8740   */\n      swap1\n      pop\n        /* \"#utility.yul\":8653:8746   */\n      swap2\n      swap1\n      pop\n      jump\t// out\n        /* \"#utility.yul\":8752:8859   */\n    tag_101:\n        /* \"#utility.yul\":8796:8804   */\n      0x00\n        /* \"#utility.yul\":8846:8851   */\n      dup3\n        /* \"#utility.yul\":8840:8844   */\n      dup3\n        /* \"#utility.yul\":8836:8852   */\n      shl\n        /* \"#utility.yul\":8815:8852   */\n      swap1\n      pop\n        /* \"#utility.yul\":8752:8859   */\n      swap3\n      swap2\n      pop\n      pop\n      jump\t// out\n        /* \"#utility.yul\":8865:9258   */\n    tag_102:\n        /* \"#utility.yul\":8934:8940   */\n      0x00\n        /* \"#utility.yul\":8984:8985   */\n      0x08\n        /* \"#utility.yul\":8972:8982   */\n      dup4\n        /* \"#utility.yul\":8968:8986   */\n      mul\n        /* \"#utility.yul\":9007:9104   */\n      tag_221\n        /* \"#utility.yul\":9037:9103   */\n      0xffffffffffffffffffffffffffffffffffffffffffffffffffffffffffffffff\n        /* \"#utility.yul\":9026:9035   */\n      dup3\n        /* \"#utility.yul\":9007:9104   */\n      tag_101\n      jump\t// in\n    tag_221:\n        /* \"#utility.yul\":9125:9164   */\n      tag_222\n        /* \"#utility.yul\":9155:9163   */\n      dup7\n        /* \"#utility.yul\":9144:9153   */\n      dup4\n        /* \"#utility.yul\":9125:9164   */\n      tag_101\n      jump\t// in\n    tag_222:\n        /* \"#utility.yul\":9113:9164   */\n      swap6\n      pop\n        /* \"#utility.yul\":9197:9201   */\n      dup1\n        /* \"#utility.yul\":9193:9202   */\n      not\n        /* \"#utility.yul\":9186:9191   */\n      dup5\n        /* \"#utility.yul\":9182:9203   */\n      and\n        /* \"#utility.yul\":9173:9203   */\n      swap4\n      pop\n        /* \"#utility.yul\":9246:9250   */\n      dup1\n        /* \"#utility.yul\":9236:9244   */\n      dup7\n        /* \"#utility.yul\":9232:9251   */\n      and\n        /* \"#utility.yul\":9225:9230   */\n      dup5\n        /* \"#utility.yul\":9222:9252   */\n      or\n        /* \"#utility.yul\":9212:9252   */\n      swap3\n      pop\n        /* \"#utility.yul\":8941:9258   */\n      pop\n      pop\n        /* \"#utility.yul\":8865:9258   */\n      swap4\n      swap3\n      pop\n      pop\n      pop\n      jump\t// out\n        /* \"#utility.yul\":9264:9324   */\n    tag_103:\n        /* \"#utility.yul\":9292:9295   */\n      0x00\n        /* \"#utility.yul\":9313:9318   */\n      dup2\n        /* \"#utility.yul\":9306:9318   */\n      swap1\n      pop\n        /* \"#utility.yul\":9264:9324   */\n      swap2\n      swap1\n      pop\n      jump\t// out\n        /* \"#utility.yul\":9330:9472   */\n    tag_104:\n        /* \"#utility.yul\":9380:9389   */\n      0x00\n        /* \"#utility.yul\":9413:9466   */\n      tag_225\n        /* \"#utility.yul\":9431:9465   */\n      tag_226\n        /* \"#utility.yul\":9440:9464   */\n      tag_227\n        /* \"#utility.yul\":9458:9463   */\n      dup5\n        /* \"#utility.yul\":9440:9464   */\n      tag_69\n      jump\t// in\n    tag_227:\n        /* \"#utility.yul\":9431:9465   */\n      tag_103\n      jump\t// in\n    tag_226:\n        /* \"#utility.yul\":9413:9466   */\n      tag_69\n      jump\t// in\n    tag_225:\n        /* \"#utility.yul\":9400:9466   */\n      swap1\n      pop\n        /* \"#utility.yul\":9330:9472   */\n      swap2\n      swap1\n      pop\n      jump\t// out\n        /* \"#utility.yul\":9478:9553   */\n    tag_105:\n        /* \"#utility.yul\":9521:9524   */\n      0x00\n        /* \"#utility.yul\":9542:9547   */\n      dup2\n        /* \"#utility.yul\":9535:9547   */\n      swap1\n      pop\n        /* \"#utility.yul\":9478:9553   */\n      swap2\n      swap1\n      pop\n      jump\t// out\n        /* \"#utility.yul\":9559:9828   */\n    tag_106:\n        /* \"#utility.yul\":9669:9708   */\n      tag_230\n        /* \"#utility.yul\":9700:9707   */\n      dup4\n        /* \"#utility.yul\":9669:9708   */\n      tag_104\n      jump\t// in\n    tag_230:\n        /* \"#utility.yul\":9730:9821   */\n      tag_231\n        /* \"#utility.yul\":9779:9820   */\n      tag_232\n        /* \"#utility.yul\":9803:9819   */\n      dup3\n        /* \"#utility.yul\":9779:9820   */\n      tag_105\n      jump\t// in\n    tag_232:\n        /* \"#utility.yul\":9771:9777   */\n      dup5\n        /* \"#utility.yul\":9764:9768   */\n      dup5\n        /* \"#utility.yul\":9758:9769   */\n      sload\n        /* \"#utility.yul\":9730:9821   */\n      tag_102\n      jump\t// in\n    tag_231:\n        /* \"#utility.yul\":9724:9728   */\n      dup3\n        /* \"#utility.yul\":9717:9822   */\n      sstore\n        /* \"#utility.yul\":9635:9828   */\n      pop\n        /* \"#utility.yul\":9559:9828   */\n      pop\n      pop\n      pop\n      jump\t// out\n        /* \"#utility.yul\":9834:9907   */\n    tag_107:\n        /* \"#utility.yul\":9879:9882   */\n      0x00\n        /* \"#utility.yul\":9834:9907   */\n      swap1\n      jump\t// out\n        /* \"#utility.yul\":9913:10102   */\n    tag_108:\n        /* \"#utility.yul\":9990:10022   */\n      tag_235\n      tag_107\n      jump\t// in\n    tag_235:\n        /* \"#utility.yul\":10031:10096   */\n      tag_236\n        /* \"#utility.yul\":10089:10095   */\n      dup2\n        /* \"#utility.yul\":10081:10087   */\n      dup5\n        /* \"#utility.yul\":10075:10079   */\n      dup5\n        /* \"#utility.yul\":10031:10096   */\n      tag_106\n      jump\t// in\n    tag_236:\n        /* \"#utility.yul\":9966:10102   */\n      pop\n        /* \"#utility.yul\":9913:10102   */\n      pop\n      pop\n      jump\t// out\n        /* \"#utility.yul\":10108:10294   */\n    tag_109:\n        /* \"#utility.yul\":10168:10288   */\n    tag_238:\n        /* \"#utility.yul\":10185:10188   */\n      dup2\n        /* \"#utility.yul\":10178:10183   */\n      dup2\n        /* \"#utility.yul\":10175:10189   */\n      lt\n        /* \"#utility.yul\":10168:10288   */\n      iszero\n      tag_240\n      jumpi\n        /* \"#utility.yul\":10239:10278   */\n      tag_241\n        /* \"#utility.yul\":10276:10277   */\n      0x00\n        /* \"#utility.yul\":10269:10274   */\n      dup3\n        /* \"#utility.yul\":10239:10278   */\n      tag_108\n      jump\t// in\n    tag_241:\n        /* \"#utility.yul\":10212:10213   */\n      0x01\n        /* \"#utility.yul\":10205:10210   */\n      dup2\n        /* \"#utility.yul\":10201:10214   */\n      add\n        /* \"#utility.yul\":10192:10214   */\n      swap1\n      pop\n        /* \"#utility.yul\":10168:10288   */\n      jump(tag_238)\n    tag_240:\n        /* \"#utility.yul\":10108:10294   */\n      pop\n      pop\n      jump\t// out\n        /* \"#utility.yul\":10300:10843   */\n    tag_110:\n        /* \"#utility.yul\":10401:10403   */\n      0x1f\n        /* \"#utility.yul\":10396:10399   */\n      dup3\n        /* \"#utility.yul\":10393:10404   */\n      gt\n        /* \"#utility.yul\":10390:10836   */\n      iszero\n      tag_243\n      jumpi\n        /* \"#utility.yul\":10435:10473   */\n      tag_244\n        /* \"#utility.yul\":10467:10472   */\n      dup2\n        /* \"#utility.yul\":10435:10473   */\n      tag_99\n      jump\t// in\n    tag_244:\n        /* \"#utility.yul\":10519:10548   */\n      tag_245\n        /* \"#utility.yul\":10537:10547   */\n      dup5\n        /* \"#utility.yul\":10519:10548   */\n      tag_100\n      jump\t// in\n    tag_245:\n        /* \"#utility.yul\":10509:10517   */\n      dup2\n        /* \"#utility.yul\":10505:10549   */\n      add\n        /* \"#utility.yul\":10702:10704   */\n      0x20\n        /* \"#utility.yul\":10690:10700   */\n      dup6\n        /* \"#utility.yul\":10687:10705   */\n      lt\n        /* \"#utility.yul\":10684:10733   */\n      iszero\n      tag_246\n      jumpi\n        /* \"#utility.yul\":10723:10731   */\n      dup2\n        /* \"#utility.yul\":10708:10731   */\n      swap1\n      pop\n        /* \"#utility.yul\":10684:10733   */\n    tag_246:\n        /* \"#utility.yul\":10746:10826   */\n      tag_247\n        /* \"#utility.yul\":10802:10824   */\n      tag_248\n        /* \"#utility.yul\":10820:10823   */\n      dup6\n        /* \"#utility.yul\":10802:10824   */\n      tag_100\n      jump\t// in\n    tag_248:\n        /* \"#utility.yul\":10792:10800   */\n      dup4\n        /* \"#utility.yul\":10788:10825   */\n      add\n        /* \"#utility.yul\":10775:10786   */\n      dup3\n        /* \"#utility.yul\":10746:10826   */\n      tag_109\n      jump\t// in\n    tag_247:\n        /* \"#utility.yul\":10405:10836   */\n      pop\n      pop\n        /* \"#utility.yul\":10390:10836   */\n    tag_243:\n        /* \"#utility.yul\":10300:10843   */\n      pop\n      pop\n      pop\n      jump\t// out\n        /* \"#utility.yul\":10849:10966   */\n    tag_111:\n        /* \"#utility.yul\":10903:10911   */\n      0x00\n        /* \"#utility.yul\":10953:10958   */\n      dup3\n        /* \"#utility.yul\":10947:10951   */\n      dup3\n        /* \"#utility.yul\":10943:10959   */\n      shr\n        /* \"#utility.yul\":10922:10959   */\n      swap1\n      pop\n        /* \"#utility.yul\":10849:10966   */\n      swap3\n      swap2\n      pop\n      pop\n      jump\t// out\n        /* \"#utility.yul\":10972:11141   */\n    tag_112:\n        /* \"#utility.yul\":11016:11022   */\n      0x00\n        /* \"#utility.yul\":11049:11100   */\n      tag_251\n        /* \"#utility.yul\":11097:11098   */\n      0x00\n        /* \"#utility.yul\":11093:11099   */\n      not\n        /* \"#utility.yul\":11085:11090   */\n      dup5\n        /* \"#utility.yul\":11082:11083   */\n      0x08\n        /* \"#utility.yul\":11078:11091   */\n      mul\n        /* \"#utility.yul\":11049:11100   */\n      tag_111\n      jump\t// in\n    tag_251:\n        /* \"#utility.yul\":11045:11101   */\n      not\n        /* \"#utility.yul\":11130:11134   */\n      dup1\n        /* \"#utility.yul\":11124:11128   */\n      dup4\n        /* \"#utility.yul\":11120:11135   */\n      and\n        /* \"#utility.yul\":11110:11135   */\n      swap2\n      pop\n        /* \"#utility.yul\":11023:11141   */\n      pop\n        /* \"#utility.yul\":10972:11141   */\n      swap3\n      swap2\n      pop\n      pop\n      jump\t// out\n        /* \"#utility.yul\":11146:11441   */\n    tag_113:\n        /* \"#utility.yul\":11222:11226   */\n      0x00\n        /* \"#utility.yul\":11368:11397   */\n      tag_253\n        /* \"#utility.yul\":11393:11396   */\n      dup4\n        /* \"#utility.yul\":11387:11391   */\n      dup4\n        /* \"#utility.yul\":11368:11397   */\n      tag_112\n      jump\t// in\n    tag_253:\n        /* \"#utility.yul\":11360:11397   */\n      swap2\n      pop\n        /* \"#utility.yul\":11430:11433   */\n      dup3\n        /* \"#utility.yul\":11427:11428   */\n      0x02\n        /* \"#utility.yul\":11423:11434   */\n      mul\n        /* \"#utility.yul\":11417:11421   */\n      dup3\n        /* \"#utility.yul\":11414:11435   */\n      or\n        /* \"#utility.yul\":11406:11435   */\n      swap1\n      pop\n        /* \"#utility.yul\":11146:11441   */\n      swap3\n      swap2\n      pop\n      pop\n      jump\t// out\n        /* \"#utility.yul\":11446:12841   */\n    tag_38:\n        /* \"#utility.yul\":11563:11600   */\n      tag_255\n        /* \"#utility.yul\":11596:11599   */\n      dup3\n        /* \"#utility.yul\":11563:11600   */\n      tag_86\n      jump\t// in\n    tag_255:\n        /* \"#utility.yul\":11665:11683   */\n      0xffffffffffffffff\n        /* \"#utility.yul\":11657:11663   */\n      dup2\n        /* \"#utility.yul\":11654:11684   */\n      gt\n        /* \"#utility.yul\":11651:11707   */\n      iszero\n      tag_256\n      jumpi\n        /* \"#utility.yul\":11687:11705   */\n      tag_257\n      tag_77\n      jump\t// in\n    tag_257:\n        /* \"#utility.yul\":11651:11707   */\n    tag_256:\n        /* \"#utility.yul\":11731:11769   */\n      tag_258\n        /* \"#utility.yul\":11763:11767   */\n      dup3\n        /* \"#utility.yul\":11757:11768   */\n      sload\n        /* \"#utility.yul\":11731:11769   */\n      tag_53\n      jump\t// in\n    tag_258:\n        /* \"#utility.yul\":11816:11883   */\n      tag_259\n        /* \"#utility.yul\":11876:11882   */\n      dup3\n        /* \"#utility.yul\":11868:11874   */\n      dup3\n        /* \"#utility.yul\":11862:11866   */\n      dup6\n        /* \"#utility.yul\":11816:11883   */\n      tag_110\n      jump\t// in\n    tag_259:\n        /* \"#utility.yul\":11910:11911   */\n      0x00\n        /* \"#utility.yul\":11934:11938   */\n      0x20\n        /* \"#utility.yul\":11921:11938   */\n      swap1\n      pop\n        /* \"#utility.yul\":11966:11968   */\n      0x1f\n        /* \"#utility.yul\":11958:11964   */\n      dup4\n        /* \"#utility.yul\":11955:11969   */\n      gt\n        /* \"#utility.yul\":11983:11984   */\n      0x01\n        /* \"#utility.yul\":11978:12596   */\n      dup2\n      eq\n      tag_261\n      jumpi\n        /* \"#utility.yul\":12640:12641   */\n      0x00\n        /* \"#utility.yul\":12657:12663   */\n      dup5\n        /* \"#utility.yul\":12654:12731   */\n      iszero\n      tag_262\n      jumpi\n        /* \"#utility.yul\":12706:12715   */\n      dup3\n        /* \"#utility.yul\":12701:12704   */\n      dup8\n        /* \"#utility.yul\":12697:12716   */\n      add\n        /* \"#utility.yul\":12691:12717   */\n      mload\n        /* \"#utility.yul\":12682:12717   */\n      swap1\n      pop\n        /* \"#utility.yul\":12654:12731   */\n    tag_262:\n        /* \"#utility.yul\":12757:12824   */\n      tag_263\n        /* \"#utility.yul\":12817:12823   */\n      dup6\n        /* \"#utility.yul\":12810:12815   */\n      dup3\n        /* \"#utility.yul\":12757:12824   */\n      tag_113\n      jump\t// in\n    tag_263:\n        /* \"#utility.yul\":12751:12755   */\n      dup7\n        /* \"#utility.yul\":12744:12825   */\n      sstore\n        /* \"#utility.yul\":12613:12835   */\n      pop\n        /* \"#utility.yul\":11948:12835   */\n      jump(tag_260)\n        /* \"#utility.yul\":11978:12596   */\n    tag_261:\n        /* \"#utility.yul\":12030:12034   */\n      0x1f\n        /* \"#utility.yul\":12026:12035   */\n      not\n        /* \"#utility.yul\":12018:12024   */\n      dup5\n        /* \"#utility.yul\":12014:12036   */\n      and\n        /* \"#utility.yul\":12064:12101   */\n      tag_264\n        /* \"#utility.yul\":12096:12100   */\n      dup7\n        /* \"#utility.yul\":12064:12101   */\n      tag_99\n      jump\t// in\n    tag_264:\n        /* \"#utility.yul\":12123:12124   */\n      0x00\n        /* \"#utility.yul\":12137:12345   */\n    tag_265:\n        /* \"#utility.yul\":12151:12158   */\n      dup3\n        /* \"#utility.yul\":12148:12149   */\n      dup2\n        /* \"#utility.yul\":12145:12159   */\n      lt\n        /* \"#utility.yul\":12137:12345   */\n      iszero\n      tag_267\n      jumpi\n        /* \"#utility.yul\":12230:12239   */\n      dup5\n        /* \"#utility.yul\":12225:12228   */\n      dup10\n        /* \"#utility.yul\":12221:12240   */\n      add\n        /* \"#utility.yul\":12215:12241   */\n      mload\n        /* \"#utility.yul\":12207:12213   */\n      dup3\n        /* \"#utility.yul\":12200:12242   */\n      sstore\n        /* \"#utility.yul\":12281:12282   */\n      0x01\n        /* \"#utility.yul\":12273:12279   */\n      dup3\n        /* \"#utility.yul\":12269:12283   */\n      add\n        /* \"#utility.yul\":12259:12283   */\n      swap2\n      pop\n        /* \"#utility.yul\":12328:12330   */\n      0x20\n        /* \"#utility.yul\":12317:12326   */\n      dup6\n        /* \"#utility.yul\":12313:12331   */\n      add\n        /* \"#utility.yul\":12300:12331   */\n      swap5\n      pop\n        /* \"#utility.yul\":12174:12178   */\n      0x20\n        /* \"#utility.yul\":12171:12172   */\n      dup2\n        /* \"#utility.yul\":12167:12179   */\n      add\n        /* \"#utility.yul\":12162:12179   */\n      swap1\n      pop\n        /* \"#utility.yul\":12137:12345   */\n      jump(tag_265)\n    tag_267:\n        /* \"#utility.yul\":12373:12379   */\n      dup7\n        /* \"#utility.yul\":12364:12371   */\n      dup4\n        /* \"#utility.yul\":12361:12380   */\n      lt\n        /* \"#utility.yul\":12358:12537   */\n      iszero\n      tag_268\n      jumpi\n        /* \"#utility.yul\":12431:12440   */\n      dup5\n        /* \"#utility.yul\":12426:12429   */\n      dup10\n        /* \"#utility.yul\":12422:12441   */\n      add\n        /* \"#utility.yul\":12416:12442   */\n      mload\n        /* \"#utility.yul\":12474:12522   */\n      tag_269\n        /* \"#utility.yul\":12516:12520   */\n      0x1f\n        /* \"#utility.yul\":12508:12514   */\n      dup10\n        /* \"#utility.yul\":12504:12521   */\n      and\n        /* \"#utility.yul\":12493:12502   */\n      dup3\n        /* \"#utility.yul\":12474:12522   */\n      tag_112\n      jump\t// in\n    tag_269:\n        /* \"#utility.yul\":12466:12472   */\n      dup4\n        /* \"#utility.yul\":12459:12523   */\n      sstore\n        /* \"#utility.yul\":12381:12537   */\n      pop\n        /* \"#utility.yul\":12358:12537   */\n    tag_268:\n        /* \"#utility.yul\":12583:12584   */\n      0x01\n        /* \"#utility.yul\":12579:12580   */\n      0x02\n        /* \"#utility.yul\":12571:12577   */\n      dup9\n        /* \"#utility.yul\":12567:12581   */\n      mul\n        /* \"#utility.yul\":12563:12585   */\n      add\n        /* \"#utility.yul\":12557:12561   */\n      dup9\n        /* \"#utility.yul\":12550:12586   */\n      sstore\n        /* \"#utility.yul\":11985:12596   */\n      pop\n      pop\n      pop\n        /* \"#utility.yul\":11948:12835   */\n    tag_260:\n      pop\n        /* \"#utility.yul\":11538:12841   */\n      pop\n      pop\n      pop\n        /* \"#utility.yul\":11446:12841   */\n      pop\n      pop\n      jump\t// out\n        /* \"#utility.yul\":12847:13270   */\n    tag_40:\n        /* \"#utility.yul\":12988:12992   */\n      0x00\n        /* \"#utility.yul\":13026:13028   */\n      0x40\n        /* \"#utility.yul\":13015:13024   */\n      dup3\n        /* \"#utility.yul\":13011:13029   */\n      add\n        /* \"#utility.yul\":13003:13029   */\n      swap1\n      pop\n        /* \"#utility.yul\":13075:13084   */\n      dup2\n        /* \"#utility.yul\":13069:13073   */\n      dup2\n        /* \"#utility.yul\":13065:13085   */\n      sub\n        /* \"#utility.yul\":13061:13062   */\n      0x00\n        /* \"#utility.yul\":13050:13059   */\n      dup4\n        /* \"#utility.yul\":13046:13063   */\n      add\n        /* \"#utility.yul\":13039:13086   */\n      mstore\n        /* \"#utility.yul\":13103:13181   */\n      tag_271\n        /* \"#utility.yul\":13176:13180   */\n      dup2\n        /* \"#utility.yul\":13167:13173   */\n      dup6\n        /* \"#utility.yul\":13103:13181   */\n      tag_89\n      jump\t// in\n    tag_271:\n        /* \"#utility.yul\":13095:13181   */\n      swap1\n      pop\n        /* \"#utility.yul\":13191:13263   */\n      tag_272\n        /* \"#utility.yul\":13259:13261   */\n      0x20\n        /* \"#utility.yul\":13248:13257   */\n      dup4\n        /* \"#utility.yul\":13244:13262   */\n      add\n        /* \"#utility.yul\":13235:13241   */\n      dup5\n        /* \"#utility.yul\":13191:13263   */\n      tag_70\n      jump\t// in\n    tag_272:\n        /* \"#utility.yul\":12847:13270   */\n      swap4\n      swap3\n      pop\n      pop\n      pop\n      jump\t// out\n        /* \"#utility.yul\":13276:13447   */\n    tag_114:\n        /* \"#utility.yul\":13416:13439   */\n      0x4974656d206973206e6f7420617661696c61626c650000000000000000000000\n        /* \"#utility.yul\":13412:13413   */\n      0x00\n        /* \"#utility.yul\":13404:13410   */\n      dup3\n        /* \"#utility.yul\":13400:13414   */\n      add\n        /* \"#utility.yul\":13393:13440   */\n      mstore\n        /* \"#utility.yul\":13276:13447   */\n      pop\n      jump\t// out\n        /* \"#utility.yul\":13453:13819   */\n    tag_115:\n        /* \"#utility.yul\":13595:13598   */\n      0x00\n        /* \"#utility.yul\":13616:13683   */\n      tag_275\n        /* \"#utility.yul\":13680:13682   */\n      0x15\n        /* \"#utility.yul\":13675:13678   */\n      dup4\n        /* \"#utility.yul\":13616:13683   */\n      tag_87\n      jump\t// in\n    tag_275:\n        /* \"#utility.yul\":13609:13683   */\n      swap2\n      pop\n        /* \"#utility.yul\":13692:13785   */\n      tag_276\n        /* \"#utility.yul\":13781:13784   */\n      dup3\n        /* \"#utility.yul\":13692:13785   */\n      tag_114\n      jump\t// in\n    tag_276:\n        /* \"#utility.yul\":13810:13812   */\n      0x20\n        /* \"#utility.yul\":13805:13808   */\n      dup3\n        /* \"#utility.yul\":13801:13813   */\n      add\n        /* \"#utility.yul\":13794:13813   */\n      swap1\n      pop\n        /* \"#utility.yul\":13453:13819   */\n      swap2\n      swap1\n      pop\n      jump\t// out\n        /* \"#utility.yul\":13825:14244   */\n    tag_44:\n        /* \"#utility.yul\":13991:13995   */\n      0x00\n        /* \"#utility.yul\":14029:14031   */\n      0x20\n        /* \"#utility.yul\":14018:14027   */\n      dup3\n        /* \"#utility.yul\":14014:14032   */\n      add\n        /* \"#utility.yul\":14006:14032   */\n      swap1\n      pop\n        /* \"#utility.yul\":14078:14087   */\n      dup2\n        /* \"#utility.yul\":14072:14076   */\n      dup2\n        /* \"#utility.yul\":14068:14088   */\n      sub\n        /* \"#utility.yul\":14064:14065   */\n      0x00\n        /* \"#utility.yul\":14053:14062   */\n      dup4\n        /* \"#utility.yul\":14049:14066   */\n      add\n        /* \"#utility.yul\":14042:14089   */\n      mstore\n        /* \"#utility.yul\":14106:14237   */\n      tag_278\n        /* \"#utility.yul\":14232:14236   */\n      dup2\n        /* \"#utility.yul\":14106:14237   */\n      tag_115\n      jump\t// in\n    tag_278:\n        /* \"#utility.yul\":14098:14237   */\n      swap1\n      pop\n        /* \"#utility.yul\":13825:14244   */\n      swap2\n      swap1\n      pop\n      jump\t// out\n        /* \"#utility.yul\":14250:14424   */\n    tag_116:\n        /* \"#utility.yul\":14390:14416   */\n      0x43616e6e6f742062757920796f7572206f776e206974656d0000000000000000\n        /* \"#utility.yul\":14386:14387   */\n      0x00\n        /* \"#utility.yul\":14378:14384   */\n      dup3\n        /* \"#utility.yul\":14374:14388   */\n      add\n        /* \"#utility.yul\":14367:14417   */\n      mstore\n        /* \"#utility.yul\":14250:14424   */\n      pop\n      jump\t// out\n        /* \"#utility.yul\":14430:14796   */\n    tag_117:\n        /* \"#utility.yul\":14572:14575   */\n      0x00\n        /* \"#utility.yul\":14593:14660   */\n      tag_281\n        /* \"#utility.yul\":14657:14659   */\n      0x18\n        /* \"#utility.yul\":14652:14655   */\n      dup4\n        /* \"#utility.yul\":14593:14660   */\n      tag_87\n      jump\t// in\n    tag_281:\n        /* \"#utility.yul\":14586:14660   */\n      swap2\n      pop\n        /* \"#utility.yul\":14669:14762   */\n      tag_282\n        /* \"#utility.yul\":14758:14761   */\n      dup3\n        /* \"#utility.yul\":14669:14762   */\n      tag_116\n      jump\t// in\n    tag_282:\n        /* \"#utility.yul\":14787:14789   */\n      0x20\n        /* \"#utility.yul\":14782:14785   */\n      dup3\n        /* \"#utility.yul\":14778:14790   */\n      add\n        /* \"#utility.yul\":14771:14790   */\n      swap1\n      pop\n        /* \"#utility.yul\":14430:14796   */\n      swap2\n      swap1\n      pop\n      jump\t// out\n        /* \"#utility.yul\":14802:15221   */\n    tag_47:\n        /* \"#utility.yul\":14968:14972   */\n      0x00\n        /* \"#utility.yul\":15006:15008   */\n      0x20\n        /* \"#utility.yul\":14995:15004   */\n      dup3\n        /* \"#utility.yul\":14991:15009   */\n      add\n        /* \"#utility.yul\":14983:15009   */\n      swap1\n      pop\n        /* \"#utility.yul\":15055:15064   */\n      dup2\n        /* \"#utility.yul\":15049:15053   */\n      dup2\n        /* \"#utility.yul\":15045:15065   */\n      sub\n        /* \"#utility.yul\":15041:15042   */\n      0x00\n        /* \"#utility.yul\":15030:15039   */\n      dup4\n        /* \"#utility.yul\":15026:15043   */\n      add\n        /* \"#utility.yul\":15019:15066   */\n      mstore\n        /* \"#utility.yul\":15083:15214   */\n      tag_284\n        /* \"#utility.yul\":15209:15213   */\n      dup2\n        /* \"#utility.yul\":15083:15214   */\n      tag_117\n      jump\t// in\n    tag_284:\n        /* \"#utility.yul\":15075:15214   */\n      swap1\n      pop\n        /* \"#utility.yul\":14802:15221   */\n      swap2\n      swap1\n      pop\n      jump\t// out\n        /* \"#utility.yul\":15227:15401   */\n    tag_118:\n        /* \"#utility.yul\":15367:15393   */\n      0x496e636f7272656374207061796d656e7420616d6f756e740000000000000000\n        /* \"#utility.yul\":15363:15364   */\n      0x00\n        /* \"#utility.yul\":15355:15361   */\n      dup3\n        /* \"#utility.yul\":15351:15365   */\n      add\n        /* \"#utility.yul\":15344:15394   */\n      mstore\n        /* \"#utility.yul\":15227:15401   */\n      pop\n      jump\t// out\n        /* \"#utility.yul\":15407:15773   */\n    tag_119:\n        /* \"#utility.yul\":15549:15552   */\n      0x00\n        /* \"#utility.yul\":15570:15637   */\n      tag_287\n        /* \"#utility.yul\":15634:15636   */\n      0x18\n        /* \"#utility.yul\":15629:15632   */\n      dup4\n        /* \"#utility.yul\":15570:15637   */\n      tag_87\n      jump\t// in\n    tag_287:\n        /* \"#utility.yul\":15563:15637   */\n      swap2\n      pop\n        /* \"#utility.yul\":15646:15739   */\n      tag_288\n        /* \"#utility.yul\":15735:15738   */\n      dup3\n        /* \"#utility.yul\":15646:15739   */\n      tag_118\n      jump\t// in\n    tag_288:\n        /* \"#utility.yul\":15764:15766   */\n      0x20\n        /* \"#utility.yul\":15759:15762   */\n      dup3\n        /* \"#utility.yul\":15755:15767   */\n      add\n        /* \"#utility.yul\":15748:15767   */\n      swap1\n      pop\n        /* \"#utility.yul\":15407:15773   */\n      swap2\n      swap1\n      pop\n      jump\t// out\n        /* \"#utility.yul\":15779:16198   */\n    tag_50:\n        /* \"#utility.yul\":15945:15949   */\n      0x00\n        /* \"#utility.yul\":15983:15985   */\n      0x20\n        /* \"#utility.yul\":15972:15981   */\n      dup3\n        /* \"#utility.yul\":15968:15986   */\n      add\n        /* \"#utility.yul\":15960:15986   */\n      swap1\n      pop\n        /* \"#utility.yul\":16032:16041   */\n      dup2\n        /* \"#utility.yul\":16026:16030   */\n      dup2\n        /* \"#utility.yul\":16022:16042   */\n      sub\n        /* \"#utility.yul\":16018:16019   */\n      0x00\n        /* \"#utility.yul\":16007:16016   */\n      dup4\n        /* \"#utility.yul\":16003:16020   */\n      add\n        /* \"#utility.yul\":15996:16043   */\n      mstore\n        /* \"#utility.yul\":16060:16191   */\n      tag_290\n        /* \"#utility.yul\":16186:16190   */\n      dup2\n        /* \"#utility.yul\":16060:16191   */\n      tag_119\n      jump\t// in\n    tag_290:\n        /* \"#utility.yul\":16052:16191   */\n      swap1\n      pop\n        /* \"#utility.yul\":15779:16198   */\n      swap2\n      swap1\n      pop\n      jump\t// out\n        /* \"#utility.yul\":16204:16384   */\n    tag_120:\n        /* \"#utility.yul\":16344:16376   */\n      0x4f6e6c79206f776e65722063616e2061636365707420616e206f666665720000\n        /* \"#utility.yul\":16340:16341   */\n      0x00\n        /* \"#utility.yul\":16332:16338   */\n      dup3\n        /* \"#utility.yul\":16328:16342   */\n      add\n        /* \"#utility.yul\":16321:16377   */\n      mstore\n        /* \"#utility.yul\":16204:16384   */\n      pop\n      jump\t// out\n        /* \"#utility.yul\":16390:16756   */\n    tag_121:\n        /* \"#utility.yul\":16532:16535   */\n      0x00\n        /* \"#utility.yul\":16553:16620   */\n      tag_293\n        /* \"#utility.yul\":16617:16619   */\n      0x1e\n        /* \"#utility.yul\":16612:16615   */\n      dup4\n        /* \"#utility.yul\":16553:16620   */\n      tag_87\n      jump\t// in\n    tag_293:\n        /* \"#utility.yul\":16546:16620   */\n      swap2\n      pop\n        /* \"#utility.yul\":16629:16722   */\n      tag_294\n        /* \"#utility.yul\":16718:16721   */\n      dup3\n        /* \"#utility.yul\":16629:16722   */\n      tag_120\n      jump\t// in\n    tag_294:\n        /* \"#utility.yul\":16747:16749   */\n      0x20\n        /* \"#utility.yul\":16742:16745   */\n      dup3\n        /* \"#utility.yul\":16738:16750   */\n      add\n        /* \"#utility.yul\":16731:16750   */\n      swap1\n      pop\n        /* \"#utility.yul\":16390:16756   */\n      swap2\n      swap1\n      pop\n      jump\t// out\n        /* \"#utility.yul\":16762:17181   */\n    tag_63:\n        /* \"#utility.yul\":16928:16932   */\n      0x00\n        /* \"#utility.yul\":16966:16968   */\n      0x20\n        /* \"#utility.yul\":16955:16964   */\n      dup3\n        /* \"#utility.yul\":16951:16969   */\n      add\n        /* \"#utility.yul\":16943:16969   */\n      swap1\n      pop\n        /* \"#utility.yul\":17015:17024   */\n      dup2\n        /* \"#utility.yul\":17009:17013   */\n      dup2\n        /* \"#utility.yul\":17005:17025   */\n      sub\n        /* \"#utility.yul\":17001:17002   */\n      0x00\n        /* \"#utility.yul\":16990:16999   */\n      dup4\n        /* \"#utility.yul\":16986:17003   */\n      add\n        /* \"#utility.yul\":16979:17026   */\n      mstore\n        /* \"#utility.yul\":17043:17174   */\n      tag_296\n        /* \"#utility.yul\":17169:17173   */\n      dup2\n        /* \"#utility.yul\":17043:17174   */\n      tag_121\n      jump\t// in\n    tag_296:\n        /* \"#utility.yul\":17035:17174   */\n      swap1\n      pop\n        /* \"#utility.yul\":16762:17181   */\n      swap2\n      swap1\n      pop\n      jump\t// out\n        /* \"#utility.yul\":17187:17359   */\n    tag_122:\n        /* \"#utility.yul\":17327:17351   */\n      0x4e6f206f6666657220686173206265656e206d61646500000000000000000000\n        /* \"#utility.yul\":17323:17324   */\n      0x00\n        /* \"#utility.yul\":17315:17321   */\n      dup3\n        /* \"#utility.yul\":17311:17325   */\n      add\n        /* \"#utility.yul\":17304:17352   */\n      mstore\n        /* \"#utility.yul\":17187:17359   */\n      pop\n      jump\t// out\n        /* \"#utility.yul\":17365:17731   */\n    tag_123:\n        /* \"#utility.yul\":17507:17510   */\n      0x00\n        /* \"#utility.yul\":17528:17595   */\n      tag_299\n        /* \"#utility.yul\":17592:17594   */\n      0x16\n        /* \"#utility.yul\":17587:17590   */\n      dup4\n        /* \"#utility.yul\":17528:17595   */\n      tag_87\n      jump\t// in\n    tag_299:\n        /* \"#utility.yul\":17521:17595   */\n      swap2\n      pop\n        /* \"#utility.yul\":17604:17697   */\n      tag_300\n        /* \"#utility.yul\":17693:17696   */\n      dup3\n        /* \"#utility.yul\":17604:17697   */\n      tag_122\n      jump\t// in\n    tag_300:\n        /* \"#utility.yul\":17722:17724   */\n      0x20\n        /* \"#utility.yul\":17717:17720   */\n      dup3\n        /* \"#utility.yul\":17713:17725   */\n      add\n        /* \"#utility.yul\":17706:17725   */\n      swap1\n      pop\n        /* \"#utility.yul\":17365:17731   */\n      swap2\n      swap1\n      pop\n      jump\t// out\n        /* \"#utility.yul\":17737:18156   */\n    tag_66:\n        /* \"#utility.yul\":17903:17907   */\n      0x00\n        /* \"#utility.yul\":17941:17943   */\n      0x20\n        /* \"#utility.yul\":17930:17939   */\n      dup3\n        /* \"#utility.yul\":17926:17944   */\n      add\n        /* \"#utility.yul\":17918:17944   */\n      swap1\n      pop\n        /* \"#utility.yul\":17990:17999   */\n      dup2\n        /* \"#utility.yul\":17984:17988   */\n      dup2\n        /* \"#utility.yul\":17980:18000   */\n      sub\n        /* \"#utility.yul\":17976:17977   */\n      0x00\n        /* \"#utility.yul\":17965:17974   */\n      dup4\n        /* \"#utility.yul\":17961:17978   */\n      add\n        /* \"#utility.yul\":17954:18001   */\n      mstore\n        /* \"#utility.yul\":18018:18149   */\n      tag_302\n        /* \"#utility.yul\":18144:18148   */\n      dup2\n        /* \"#utility.yul\":18018:18149   */\n      tag_123\n      jump\t// in\n    tag_302:\n        /* \"#utility.yul\":18010:18149   */\n      swap1\n      pop\n        /* \"#utility.yul\":17737:18156   */\n      swap2\n      swap1\n      pop\n      jump\t// out\n\n    auxdata: 0xa26469706673582212200eb6ce8ca392777a05447963d87a5a3e11b33ad6c953f8c638b33a22cc63092364736f6c63430008130033\n}\n",
				"bytecode": {
					"linkReferences": {},
					"object": "608060405234801561001057600080fd5b5061134c806100206000396000f3fe60806040526004361061004a5760003560e01c80636d6d00ed1461004f5780638a075f901461007a5780639a2f6474146100a3578063bfb231d2146100bf578063c815729d14610101575b600080fd5b34801561005b57600080fd5b5061006461012a565b604051610071919061099c565b60405180910390f35b34801561008657600080fd5b506100a1600480360381019061009c9190610b3d565b610130565b005b6100bd60048036038101906100b89190610b99565b610347565b005b3480156100cb57600080fd5b506100e660048036038101906100e19190610b99565b610577565b6040516100f896959493929190610ca1565b60405180910390f35b34801561010d57600080fd5b5061012860048036038101906101239190610b99565b610695565b005b60015481565b60008111610173576040517f08c379a000000000000000000000000000000000000000000000000000000000815260040161016a90610d55565b60405180910390fd5b6001600081548092919061018690610da4565b91905055506040518060c001604052808381526020018281526020013373ffffffffffffffffffffffffffffffffffffffff168152602001600115158152602001600073ffffffffffffffffffffffffffffffffffffffff16815260200160001515815250600080600154815260200190815260200160002060008201518160000190816102149190610ff8565b506020820151816001015560408201518160020160006101000a81548173ffffffffffffffffffffffffffffffffffffffff021916908373ffffffffffffffffffffffffffffffffffffffff16021790555060608201518160020160146101000a81548160ff02191690831515021790555060808201518160030160006101000a81548173ffffffffffffffffffffffffffffffffffffffff021916908373ffffffffffffffffffffffffffffffffffffffff16021790555060a08201518160030160146101000a81548160ff0219169083151502179055509050503373ffffffffffffffffffffffffffffffffffffffff166001547fd1df9005e78e0aee3ad3697f1a6cbefe8cc807e07de4ecb63eaff32f3130b227848460405161033b9291906110ca565b60405180910390a35050565b60008082815260200190815260200160002060020160149054906101000a900460ff166103a9576040517f08c379a00000000000000000000000000000000000000000000000000000000081526004016103a090611146565b60405180910390fd5b3373ffffffffffffffffffffffffffffffffffffffff1660008083815260200190815260200160002060020160009054906101000a900473ffffffffffffffffffffffffffffffffffffffff1673ffffffffffffffffffffffffffffffffffffffff160361044c576040517f08c379a0000000000000000000000000000000000000000000000000000000008152600401610443906111b2565b60405180910390fd5b6000808281526020019081526020016000206001015434146104a3576040517f08c379a000000000000000000000000000000000000000000000000000000000815260040161049a9061121e565b60405180910390fd5b3360008083815260200190815260200160002060030160006101000a81548173ffffffffffffffffffffffffffffffffffffffff021916908373ffffffffffffffffffffffffffffffffffffffff160217905550600160008083815260200190815260200160002060030160146101000a81548160ff0219169083151502179055503373ffffffffffffffffffffffffffffffffffffffff16817f1e0aee6238465e23d99e9361c2fa580685f8fd4464d3a6e57662e745e1a441913460405161056c919061099c565b60405180910390a350565b600060205280600052604060002060009150905080600001805461059a90610e1b565b80601f01602080910402602001604051908101604052809291908181526020018280546105c690610e1b565b80156106135780601f106105e857610100808354040283529160200191610613565b820191906000526020600020905b8154815290600101906020018083116105f657829003601f168201915b5050505050908060010154908060020160009054906101000a900473ffffffffffffffffffffffffffffffffffffffff16908060020160149054906101000a900460ff16908060030160009054906101000a900473ffffffffffffffffffffffffffffffffffffffff16908060030160149054906101000a900460ff16905086565b60008082815260200190815260200160002060020160149054906101000a900460ff166106f7576040517f08c379a00000000000000000000000000000000000000000000000000000000081526004016106ee90611146565b60405180910390fd5b3373ffffffffffffffffffffffffffffffffffffffff1660008083815260200190815260200160002060020160009054906101000a900473ffffffffffffffffffffffffffffffffffffffff1673ffffffffffffffffffffffffffffffffffffffff161461079a576040517f08c379a00000000000000000000000000000000000000000000000000000000081526004016107919061128a565b60405180910390fd5b60008082815260200190815260200160002060030160149054906101000a900460ff166107fc576040517f08c379a00000000000000000000000000000000000000000000000000000000081526004016107f3906112f6565b60405180910390fd5b60008082815260200190815260200160002060020160009054906101000a900473ffffffffffffffffffffffffffffffffffffffff1673ffffffffffffffffffffffffffffffffffffffff166108fc600080848152602001908152602001600020600101549081150290604051600060405180830381858888f1935050505015801561088c573d6000803e3d6000fd5b50600080600083815260200190815260200160002060020160146101000a81548160ff02191690831515021790555060008082815260200190815260200160002060030160009054906101000a900473ffffffffffffffffffffffffffffffffffffffff1673ffffffffffffffffffffffffffffffffffffffff1660008083815260200190815260200160002060020160009054906101000a900473ffffffffffffffffffffffffffffffffffffffff1673ffffffffffffffffffffffffffffffffffffffff16827ffabc3f15d66b421ab6f3492a35e9bd78bfbb7d888e5bb112f911ef9a5331eac160405160405180910390a450565b6000819050919050565b61099681610983565b82525050565b60006020820190506109b1600083018461098d565b92915050565b6000604051905090565b600080fd5b600080fd5b600080fd5b600080fd5b6000601f19601f8301169050919050565b7f4e487b7100000000000000000000000000000000000000000000000000000000600052604160045260246000fd5b610a1e826109d5565b810181811067ffffffffffffffff82111715610a3d57610a3c6109e6565b5b80604052505050565b6000610a506109b7565b9050610a5c8282610a15565b919050565b600067ffffffffffffffff821115610a7c57610a7b6109e6565b5b610a85826109d5565b9050602081019050919050565b82818337600083830152505050565b6000610ab4610aaf84610a61565b610a46565b905082815260208101848484011115610ad057610acf6109d0565b5b610adb848285610a92565b509392505050565b600082601f830112610af857610af76109cb565b5b8135610b08848260208601610aa1565b91505092915050565b610b1a81610983565b8114610b2557600080fd5b50565b600081359050610b3781610b11565b92915050565b60008060408385031215610b5457610b536109c1565b5b600083013567ffffffffffffffff811115610b7257610b716109c6565b5b610b7e85828601610ae3565b9250506020610b8f85828601610b28565b9150509250929050565b600060208284031215610baf57610bae6109c1565b5b6000610bbd84828501610b28565b91505092915050565b600081519050919050565b600082825260208201905092915050565b60005b83811015610c00578082015181840152602081019050610be5565b60008484015250505050565b6000610c1782610bc6565b610c218185610bd1565b9350610c31818560208601610be2565b610c3a816109d5565b840191505092915050565b600073ffffffffffffffffffffffffffffffffffffffff82169050919050565b6000610c7082610c45565b9050919050565b610c8081610c65565b82525050565b60008115159050919050565b610c9b81610c86565b82525050565b600060c0820190508181036000830152610cbb8189610c0c565b9050610cca602083018861098d565b610cd76040830187610c77565b610ce46060830186610c92565b610cf16080830185610c77565b610cfe60a0830184610c92565b979650505050505050565b7f5072696365206d7573742062652067726561746572207468616e203000000000600082015250565b6000610d3f601c83610bd1565b9150610d4a82610d09565b602082019050919050565b60006020820190508181036000830152610d6e81610d32565b9050919050565b7f4e487b7100000000000000000000000000000000000000000000000000000000600052601160045260246000fd5b6000610daf82610983565b91507fffffffffffffffffffffffffffffffffffffffffffffffffffffffffffffffff8203610de157610de0610d75565b5b600182019050919050565b7f4e487b7100000000000000000000000000000000000000000000000000000000600052602260045260246000fd5b60006002820490506001821680610e3357607f821691505b602082108103610e4657610e45610dec565b5b50919050565b60008190508160005260206000209050919050565b60006020601f8301049050919050565b600082821b905092915050565b600060088302610eae7fffffffffffffffffffffffffffffffffffffffffffffffffffffffffffffffff82610e71565b610eb88683610e71565b95508019841693508086168417925050509392505050565b6000819050919050565b6000610ef5610ef0610eeb84610983565b610ed0565b610983565b9050919050565b6000819050919050565b610f0f83610eda565b610f23610f1b82610efc565b848454610e7e565b825550505050565b600090565b610f38610f2b565b610f43818484610f06565b505050565b5b81811015610f6757610f5c600082610f30565b600181019050610f49565b5050565b601f821115610fac57610f7d81610e4c565b610f8684610e61565b81016020851015610f95578190505b610fa9610fa185610e61565b830182610f48565b50505b505050565b600082821c905092915050565b6000610fcf60001984600802610fb1565b1980831691505092915050565b6000610fe88383610fbe565b9150826002028217905092915050565b61100182610bc6565b67ffffffffffffffff81111561101a576110196109e6565b5b6110248254610e1b565b61102f828285610f6b565b600060209050601f8311600181146110625760008415611050578287015190505b61105a8582610fdc565b8655506110c2565b601f19841661107086610e4c565b60005b8281101561109857848901518255600182019150602085019450602081019050611073565b868310156110b557848901516110b1601f891682610fbe565b8355505b6001600288020188555050505b505050505050565b600060408201905081810360008301526110e48185610c0c565b90506110f3602083018461098d565b9392505050565b7f4974656d206973206e6f7420617661696c61626c650000000000000000000000600082015250565b6000611130601583610bd1565b915061113b826110fa565b602082019050919050565b6000602082019050818103600083015261115f81611123565b9050919050565b7f43616e6e6f742062757920796f7572206f776e206974656d0000000000000000600082015250565b600061119c601883610bd1565b91506111a782611166565b602082019050919050565b600060208201905081810360008301526111cb8161118f565b9050919050565b7f496e636f7272656374207061796d656e7420616d6f756e740000000000000000600082015250565b6000611208601883610bd1565b9150611213826111d2565b602082019050919050565b60006020820190508181036000830152611237816111fb565b9050919050565b7f4f6e6c79206f776e65722063616e2061636365707420616e206f666665720000600082015250565b6000611274601e83610bd1565b915061127f8261123e565b602082019050919050565b600060208201905081810360008301526112a381611267565b9050919050565b7f4e6f206f6666657220686173206265656e206d61646500000000000000000000600082015250565b60006112e0601683610bd1565b91506112eb826112aa565b602082019050919050565b6000602082019050818103600083015261130f816112d3565b905091905056fea26469706673582212200eb6ce8ca392777a05447963d87a5a3e11b33ad6c953f8c638b33a22cc63092364736f6c63430008130033",
					"opcodes": "PUSH1 0x80 PUSH1 0x40 MSTORE CALLVALUE DUP1 ISZERO PUSH2 0x10 JUMPI PUSH1 0x0 DUP1 REVERT JUMPDEST POP PUSH2 0x134C DUP1 PUSH2 0x20 PUSH1 0x0 CODECOPY PUSH1 0x0 RETURN INVALID PUSH1 0x80 PUSH1 0x40 MSTORE PUSH1 0x4 CALLDATASIZE LT PUSH2 0x4A JUMPI PUSH1 0x0 CALLDATALOAD PUSH1 0xE0 SHR DUP1 PUSH4 0x6D6D00ED EQ PUSH2 0x4F JUMPI DUP1 PUSH4 0x8A075F90 EQ PUSH2 0x7A JUMPI DUP1 PUSH4 0x9A2F6474 EQ PUSH2 0xA3 JUMPI DUP1 PUSH4 0xBFB231D2 EQ PUSH2 0xBF JUMPI DUP1 PUSH4 0xC815729D EQ PUSH2 0x101 JUMPI JUMPDEST PUSH1 0x0 DUP1 REVERT JUMPDEST CALLVALUE DUP1 ISZERO PUSH2 0x5B JUMPI PUSH1 0x0 DUP1 REVERT JUMPDEST POP PUSH2 0x64 PUSH2 0x12A JUMP JUMPDEST PUSH1 0x40 MLOAD PUSH2 0x71 SWAP2 SWAP1 PUSH2 0x99C JUMP JUMPDEST PUSH1 0x40 MLOAD DUP1 SWAP2 SUB SWAP1 RETURN JUMPDEST CALLVALUE DUP1 ISZERO PUSH2 0x86 JUMPI PUSH1 0x0 DUP1 REVERT JUMPDEST POP PUSH2 0xA1 PUSH1 0x4 DUP1 CALLDATASIZE SUB DUP2 ADD SWAP1 PUSH2 0x9C SWAP2 SWAP1 PUSH2 0xB3D JUMP JUMPDEST PUSH2 0x130 JUMP JUMPDEST STOP JUMPDEST PUSH2 0xBD PUSH1 0x4 DUP1 CALLDATASIZE SUB DUP2 ADD SWAP1 PUSH2 0xB8 SWAP2 SWAP1 PUSH2 0xB99 JUMP JUMPDEST PUSH2 0x347 JUMP JUMPDEST STOP JUMPDEST CALLVALUE DUP1 ISZERO PUSH2 0xCB JUMPI PUSH1 0x0 DUP1 REVERT JUMPDEST POP PUSH2 0xE6 PUSH1 0x4 DUP1 CALLDATASIZE SUB DUP2 ADD SWAP1 PUSH2 0xE1 SWAP2 SWAP1 PUSH2 0xB99 JUMP JUMPDEST PUSH2 0x577 JUMP JUMPDEST PUSH1 0x40 MLOAD PUSH2 0xF8 SWAP7 SWAP6 SWAP5 SWAP4 SWAP3 SWAP2 SWAP1 PUSH2 0xCA1 JUMP JUMPDEST PUSH1 0x40 MLOAD DUP1 SWAP2 SUB SWAP1 RETURN JUMPDEST CALLVALUE DUP1 ISZERO PUSH2 0x10D JUMPI PUSH1 0x0 DUP1 REVERT JUMPDEST POP PUSH2 0x128 PUSH1 0x4 DUP1 CALLDATASIZE SUB DUP2 ADD SWAP1 PUSH2 0x123 SWAP2 SWAP1 PUSH2 0xB99 JUMP JUMPDEST PUSH2 0x695 JUMP JUMPDEST STOP JUMPDEST PUSH1 0x1 SLOAD DUP2 JUMP JUMPDEST PUSH1 0x0 DUP2 GT PUSH2 0x173 JUMPI PUSH1 0x40 MLOAD PUSH32 0x8C379A000000000000000000000000000000000000000000000000000000000 DUP2 MSTORE PUSH1 0x4 ADD PUSH2 0x16A SWAP1 PUSH2 0xD55 JUMP JUMPDEST PUSH1 0x40 MLOAD DUP1 SWAP2 SUB SWAP1 REVERT JUMPDEST PUSH1 0x1 PUSH1 0x0 DUP2 SLOAD DUP1 SWAP3 SWAP2 SWAP1 PUSH2 0x186 SWAP1 PUSH2 0xDA4 JUMP JUMPDEST SWAP2 SWAP1 POP SSTORE POP PUSH1 0x40 MLOAD DUP1 PUSH1 0xC0 ADD PUSH1 0x40 MSTORE DUP1 DUP4 DUP2 MSTORE PUSH1 0x20 ADD DUP3 DUP2 MSTORE PUSH1 0x20 ADD CALLER PUSH20 0xFFFFFFFFFFFFFFFFFFFFFFFFFFFFFFFFFFFFFFFF AND DUP2 MSTORE PUSH1 0x20 ADD PUSH1 0x1 ISZERO ISZERO DUP2 MSTORE PUSH1 0x20 ADD PUSH1 0x0 PUSH20 0xFFFFFFFFFFFFFFFFFFFFFFFFFFFFFFFFFFFFFFFF AND DUP2 MSTORE PUSH1 0x20 ADD PUSH1 0x0 ISZERO ISZERO DUP2 MSTORE POP PUSH1 0x0 DUP1 PUSH1 0x1 SLOAD DUP2 MSTORE PUSH1 0x20 ADD SWAP1 DUP2 MSTORE PUSH1 0x20 ADD PUSH1 0x0 KECCAK256 PUSH1 0x0 DUP3 ADD MLOAD DUP2 PUSH1 0x0 ADD SWAP1 DUP2 PUSH2 0x214 SWAP2 SWAP1 PUSH2 0xFF8 JUMP JUMPDEST POP PUSH1 0x20 DUP3 ADD MLOAD DUP2 PUSH1 0x1 ADD SSTORE PUSH1 0x40 DUP3 ADD MLOAD DUP2 PUSH1 0x2 ADD PUSH1 0x0 PUSH2 0x100 EXP DUP2 SLOAD DUP2 PUSH20 0xFFFFFFFFFFFFFFFFFFFFFFFFFFFFFFFFFFFFFFFF MUL NOT AND SWAP1 DUP4 PUSH20 0xFFFFFFFFFFFFFFFFFFFFFFFFFFFFFFFFFFFFFFFF AND MUL OR SWAP1 SSTORE POP PUSH1 0x60 DUP3 ADD MLOAD DUP2 PUSH1 0x2 ADD PUSH1 0x14 PUSH2 0x100 EXP DUP2 SLOAD DUP2 PUSH1 0xFF MUL NOT AND SWAP1 DUP4 ISZERO ISZERO MUL OR SWAP1 SSTORE POP PUSH1 0x80 DUP3 ADD MLOAD DUP2 PUSH1 0x3 ADD PUSH1 0x0 PUSH2 0x100 EXP DUP2 SLOAD DUP2 PUSH20 0xFFFFFFFFFFFFFFFFFFFFFFFFFFFFFFFFFFFFFFFF MUL NOT AND SWAP1 DUP4 PUSH20 0xFFFFFFFFFFFFFFFFFFFFFFFFFFFFFFFFFFFFFFFF AND MUL OR SWAP1 SSTORE POP PUSH1 0xA0 DUP3 ADD MLOAD DUP2 PUSH1 0x3 ADD PUSH1 0x14 PUSH2 0x100 EXP DUP2 SLOAD DUP2 PUSH1 0xFF MUL NOT AND SWAP1 DUP4 ISZERO ISZERO MUL OR SWAP1 SSTORE POP SWAP1 POP POP CALLER PUSH20 0xFFFFFFFFFFFFFFFFFFFFFFFFFFFFFFFFFFFFFFFF AND PUSH1 0x1 SLOAD PUSH32 0xD1DF9005E78E0AEE3AD3697F1A6CBEFE8CC807E07DE4ECB63EAFF32F3130B227 DUP5 DUP5 PUSH1 0x40 MLOAD PUSH2 0x33B SWAP3 SWAP2 SWAP1 PUSH2 0x10CA JUMP JUMPDEST PUSH1 0x40 MLOAD DUP1 SWAP2 SUB SWAP1 LOG3 POP POP JUMP JUMPDEST PUSH1 0x0 DUP1 DUP3 DUP2 MSTORE PUSH1 0x20 ADD SWAP1 DUP2 MSTORE PUSH1 0x20 ADD PUSH1 0x0 KECCAK256 PUSH1 0x2 ADD PUSH1 0x14 SWAP1 SLOAD SWAP1 PUSH2 0x100 EXP SWAP1 DIV PUSH1 0xFF AND PUSH2 0x3A9 JUMPI PUSH1 0x40 MLOAD PUSH32 0x8C379A000000000000000000000000000000000000000000000000000000000 DUP2 MSTORE PUSH1 0x4 ADD PUSH2 0x3A0 SWAP1 PUSH2 0x1146 JUMP JUMPDEST PUSH1 0x40 MLOAD DUP1 SWAP2 SUB SWAP1 REVERT JUMPDEST CALLER PUSH20 0xFFFFFFFFFFFFFFFFFFFFFFFFFFFFFFFFFFFFFFFF AND PUSH1 0x0 DUP1 DUP4 DUP2 MSTORE PUSH1 0x20 ADD SWAP1 DUP2 MSTORE PUSH1 0x20 ADD PUSH1 0x0 KECCAK256 PUSH1 0x2 ADD PUSH1 0x0 SWAP1 SLOAD SWAP1 PUSH2 0x100 EXP SWAP1 DIV PUSH20 0xFFFFFFFFFFFFFFFFFFFFFFFFFFFFFFFFFFFFFFFF AND PUSH20 0xFFFFFFFFFFFFFFFFFFFFFFFFFFFFFFFFFFFFFFFF AND SUB PUSH2 0x44C JUMPI PUSH1 0x40 MLOAD PUSH32 0x8C379A000000000000000000000000000000000000000000000000000000000 DUP2 MSTORE PUSH1 0x4 ADD PUSH2 0x443 SWAP1 PUSH2 0x11B2 JUMP JUMPDEST PUSH1 0x40 MLOAD DUP1 SWAP2 SUB SWAP1 REVERT JUMPDEST PUSH1 0x0 DUP1 DUP3 DUP2 MSTORE PUSH1 0x20 ADD SWAP1 DUP2 MSTORE PUSH1 0x20 ADD PUSH1 0x0 KECCAK256 PUSH1 0x1 ADD SLOAD CALLVALUE EQ PUSH2 0x4A3 JUMPI PUSH1 0x40 MLOAD PUSH32 0x8C379A000000000000000000000000000000000000000000000000000000000 DUP2 MSTORE PUSH1 0x4 ADD PUSH2 0x49A SWAP1 PUSH2 0x121E JUMP JUMPDEST PUSH1 0x40 MLOAD DUP1 SWAP2 SUB SWAP1 REVERT JUMPDEST CALLER PUSH1 0x0 DUP1 DUP4 DUP2 MSTORE PUSH1 0x20 ADD SWAP1 DUP2 MSTORE PUSH1 0x20 ADD PUSH1 0x0 KECCAK256 PUSH1 0x3 ADD PUSH1 0x0 PUSH2 0x100 EXP DUP2 SLOAD DUP2 PUSH20 0xFFFFFFFFFFFFFFFFFFFFFFFFFFFFFFFFFFFFFFFF MUL NOT AND SWAP1 DUP4 PUSH20 0xFFFFFFFFFFFFFFFFFFFFFFFFFFFFFFFFFFFFFFFF AND MUL OR SWAP1 SSTORE POP PUSH1 0x1 PUSH1 0x0 DUP1 DUP4 DUP2 MSTORE PUSH1 0x20 ADD SWAP1 DUP2 MSTORE PUSH1 0x20 ADD PUSH1 0x0 KECCAK256 PUSH1 0x3 ADD PUSH1 0x14 PUSH2 0x100 EXP DUP2 SLOAD DUP2 PUSH1 0xFF MUL NOT AND SWAP1 DUP4 ISZERO ISZERO MUL OR SWAP1 SSTORE POP CALLER PUSH20 0xFFFFFFFFFFFFFFFFFFFFFFFFFFFFFFFFFFFFFFFF AND DUP2 PUSH32 0x1E0AEE6238465E23D99E9361C2FA580685F8FD4464D3A6E57662E745E1A44191 CALLVALUE PUSH1 0x40 MLOAD PUSH2 0x56C SWAP2 SWAP1 PUSH2 0x99C JUMP JUMPDEST PUSH1 0x40 MLOAD DUP1 SWAP2 SUB SWAP1 LOG3 POP JUMP JUMPDEST PUSH1 0x0 PUSH1 0x20 MSTORE DUP1 PUSH1 0x0 MSTORE PUSH1 0x40 PUSH1 0x0 KECCAK256 PUSH1 0x0 SWAP2 POP SWAP1 POP DUP1 PUSH1 0x0 ADD DUP1 SLOAD PUSH2 0x59A SWAP1 PUSH2 0xE1B JUMP JUMPDEST DUP1 PUSH1 0x1F ADD PUSH1 0x20 DUP1 SWAP2 DIV MUL PUSH1 0x20 ADD PUSH1 0x40 MLOAD SWAP1 DUP2 ADD PUSH1 0x40 MSTORE DUP1 SWAP3 SWAP2 SWAP1 DUP2 DUP2 MSTORE PUSH1 0x20 ADD DUP3 DUP1 SLOAD PUSH2 0x5C6 SWAP1 PUSH2 0xE1B JUMP JUMPDEST DUP1 ISZERO PUSH2 0x613 JUMPI DUP1 PUSH1 0x1F LT PUSH2 0x5E8 JUMPI PUSH2 0x100 DUP1 DUP4 SLOAD DIV MUL DUP4 MSTORE SWAP2 PUSH1 0x20 ADD SWAP2 PUSH2 0x613 JUMP JUMPDEST DUP3 ADD SWAP2 SWAP1 PUSH1 0x0 MSTORE PUSH1 0x20 PUSH1 0x0 KECCAK256 SWAP1 JUMPDEST DUP2 SLOAD DUP2 MSTORE SWAP1 PUSH1 0x1 ADD SWAP1 PUSH1 0x20 ADD DUP1 DUP4 GT PUSH2 0x5F6 JUMPI DUP3 SWAP1 SUB PUSH1 0x1F AND DUP3 ADD SWAP2 JUMPDEST POP POP POP POP POP SWAP1 DUP1 PUSH1 0x1 ADD SLOAD SWAP1 DUP1 PUSH1 0x2 ADD PUSH1 0x0 SWAP1 SLOAD SWAP1 PUSH2 0x100 EXP SWAP1 DIV PUSH20 0xFFFFFFFFFFFFFFFFFFFFFFFFFFFFFFFFFFFFFFFF AND SWAP1 DUP1 PUSH1 0x2 ADD PUSH1 0x14 SWAP1 SLOAD SWAP1 PUSH2 0x100 EXP SWAP1 DIV PUSH1 0xFF AND SWAP1 DUP1 PUSH1 0x3 ADD PUSH1 0x0 SWAP1 SLOAD SWAP1 PUSH2 0x100 EXP SWAP1 DIV PUSH20 0xFFFFFFFFFFFFFFFFFFFFFFFFFFFFFFFFFFFFFFFF AND SWAP1 DUP1 PUSH1 0x3 ADD PUSH1 0x14 SWAP1 SLOAD SWAP1 PUSH2 0x100 EXP SWAP1 DIV PUSH1 0xFF AND SWAP1 POP DUP7 JUMP JUMPDEST PUSH1 0x0 DUP1 DUP3 DUP2 MSTORE PUSH1 0x20 ADD SWAP1 DUP2 MSTORE PUSH1 0x20 ADD PUSH1 0x0 KECCAK256 PUSH1 0x2 ADD PUSH1 0x14 SWAP1 SLOAD SWAP1 PUSH2 0x100 EXP SWAP1 DIV PUSH1 0xFF AND PUSH2 0x6F7 JUMPI PUSH1 0x40 MLOAD PUSH32 0x8C379A000000000000000000000000000000000000000000000000000000000 DUP2 MSTORE PUSH1 0x4 ADD PUSH2 0x6EE SWAP1 PUSH2 0x1146 JUMP JUMPDEST PUSH1 0x40 MLOAD DUP1 SWAP2 SUB SWAP1 REVERT JUMPDEST CALLER PUSH20 0xFFFFFFFFFFFFFFFFFFFFFFFFFFFFFFFFFFFFFFFF AND PUSH1 0x0 DUP1 DUP4 DUP2 MSTORE PUSH1 0x20 ADD SWAP1 DUP2 MSTORE PUSH1 0x20 ADD PUSH1 0x0 KECCAK256 PUSH1 0x2 ADD PUSH1 0x0 SWAP1 SLOAD SWAP1 PUSH2 0x100 EXP SWAP1 DIV PUSH20 0xFFFFFFFFFFFFFFFFFFFFFFFFFFFFFFFFFFFFFFFF AND PUSH20 0xFFFFFFFFFFFFFFFFFFFFFFFFFFFFFFFFFFFFFFFF AND EQ PUSH2 0x79A JUMPI PUSH1 0x40 MLOAD PUSH32 0x8C379A000000000000000000000000000000000000000000000000000000000 DUP2 MSTORE PUSH1 0x4 ADD PUSH2 0x791 SWAP1 PUSH2 0x128A JUMP JUMPDEST PUSH1 0x40 MLOAD DUP1 SWAP2 SUB SWAP1 REVERT JUMPDEST PUSH1 0x0 DUP1 DUP3 DUP2 MSTORE PUSH1 0x20 ADD SWAP1 DUP2 MSTORE PUSH1 0x20 ADD PUSH1 0x0 KECCAK256 PUSH1 0x3 ADD PUSH1 0x14 SWAP1 SLOAD SWAP1 PUSH2 0x100 EXP SWAP1 DIV PUSH1 0xFF AND PUSH2 0x7FC JUMPI PUSH1 0x40 MLOAD PUSH32 0x8C379A000000000000000000000000000000000000000000000000000000000 DUP2 MSTORE PUSH1 0x4 ADD PUSH2 0x7F3 SWAP1 PUSH2 0x12F6 JUMP JUMPDEST PUSH1 0x40 MLOAD DUP1 SWAP2 SUB SWAP1 REVERT JUMPDEST PUSH1 0x0 DUP1 DUP3 DUP2 MSTORE PUSH1 0x20 ADD SWAP1 DUP2 MSTORE PUSH1 0x20 ADD PUSH1 0x0 KECCAK256 PUSH1 0x2 ADD PUSH1 0x0 SWAP1 SLOAD SWAP1 PUSH2 0x100 EXP SWAP1 DIV PUSH20 0xFFFFFFFFFFFFFFFFFFFFFFFFFFFFFFFFFFFFFFFF AND PUSH20 0xFFFFFFFFFFFFFFFFFFFFFFFFFFFFFFFFFFFFFFFF AND PUSH2 0x8FC PUSH1 0x0 DUP1 DUP5 DUP2 MSTORE PUSH1 0x20 ADD SWAP1 DUP2 MSTORE PUSH1 0x20 ADD PUSH1 0x0 KECCAK256 PUSH1 0x1 ADD SLOAD SWAP1 DUP2 ISZERO MUL SWAP1 PUSH1 0x40 MLOAD PUSH1 0x0 PUSH1 0x40 MLOAD DUP1 DUP4 SUB DUP2 DUP6 DUP9 DUP9 CALL SWAP4 POP POP POP POP ISZERO DUP1 ISZERO PUSH2 0x88C JUMPI RETURNDATASIZE PUSH1 0x0 DUP1 RETURNDATACOPY RETURNDATASIZE PUSH1 0x0 REVERT JUMPDEST POP PUSH1 0x0 DUP1 PUSH1 0x0 DUP4 DUP2 MSTORE PUSH1 0x20 ADD SWAP1 DUP2 MSTORE PUSH1 0x20 ADD PUSH1 0x0 KECCAK256 PUSH1 0x2 ADD PUSH1 0x14 PUSH2 0x100 EXP DUP2 SLOAD DUP2 PUSH1 0xFF MUL NOT AND SWAP1 DUP4 ISZERO ISZERO MUL OR SWAP1 SSTORE POP PUSH1 0x0 DUP1 DUP3 DUP2 MSTORE PUSH1 0x20 ADD SWAP1 DUP2 MSTORE PUSH1 0x20 ADD PUSH1 0x0 KECCAK256 PUSH1 0x3 ADD PUSH1 0x0 SWAP1 SLOAD SWAP1 PUSH2 0x100 EXP SWAP1 DIV PUSH20 0xFFFFFFFFFFFFFFFFFFFFFFFFFFFFFFFFFFFFFFFF AND PUSH20 0xFFFFFFFFFFFFFFFFFFFFFFFFFFFFFFFFFFFFFFFF AND PUSH1 0x0 DUP1 DUP4 DUP2 MSTORE PUSH1 0x20 ADD SWAP1 DUP2 MSTORE PUSH1 0x20 ADD PUSH1 0x0 KECCAK256 PUSH1 0x2 ADD PUSH1 0x0 SWAP1 SLOAD SWAP1 PUSH2 0x100 EXP SWAP1 DIV PUSH20 0xFFFFFFFFFFFFFFFFFFFFFFFFFFFFFFFFFFFFFFFF AND PUSH20 0xFFFFFFFFFFFFFFFFFFFFFFFFFFFFFFFFFFFFFFFF AND DUP3 PUSH32 0xFABC3F15D66B421AB6F3492A35E9BD78BFBB7D888E5BB112F911EF9A5331EAC1 PUSH1 0x40 MLOAD PUSH1 0x40 MLOAD DUP1 SWAP2 SUB SWAP1 LOG4 POP JUMP JUMPDEST PUSH1 0x0 DUP2 SWAP1 POP SWAP2 SWAP1 POP JUMP JUMPDEST PUSH2 0x996 DUP2 PUSH2 0x983 JUMP JUMPDEST DUP3 MSTORE POP POP JUMP JUMPDEST PUSH1 0x0 PUSH1 0x20 DUP3 ADD SWAP1 POP PUSH2 0x9B1 PUSH1 0x0 DUP4 ADD DUP5 PUSH2 0x98D JUMP JUMPDEST SWAP3 SWAP2 POP POP JUMP JUMPDEST PUSH1 0x0 PUSH1 0x40 MLOAD SWAP1 POP SWAP1 JUMP JUMPDEST PUSH1 0x0 DUP1 REVERT JUMPDEST PUSH1 0x0 DUP1 REVERT JUMPDEST PUSH1 0x0 DUP1 REVERT JUMPDEST PUSH1 0x0 DUP1 REVERT JUMPDEST PUSH1 0x0 PUSH1 0x1F NOT PUSH1 0x1F DUP4 ADD AND SWAP1 POP SWAP2 SWAP1 POP JUMP JUMPDEST PUSH32 0x4E487B7100000000000000000000000000000000000000000000000000000000 PUSH1 0x0 MSTORE PUSH1 0x41 PUSH1 0x4 MSTORE PUSH1 0x24 PUSH1 0x0 REVERT JUMPDEST PUSH2 0xA1E DUP3 PUSH2 0x9D5 JUMP JUMPDEST DUP2 ADD DUP2 DUP2 LT PUSH8 0xFFFFFFFFFFFFFFFF DUP3 GT OR ISZERO PUSH2 0xA3D JUMPI PUSH2 0xA3C PUSH2 0x9E6 JUMP JUMPDEST JUMPDEST DUP1 PUSH1 0x40 MSTORE POP POP POP JUMP JUMPDEST PUSH1 0x0 PUSH2 0xA50 PUSH2 0x9B7 JUMP JUMPDEST SWAP1 POP PUSH2 0xA5C DUP3 DUP3 PUSH2 0xA15 JUMP JUMPDEST SWAP2 SWAP1 POP JUMP JUMPDEST PUSH1 0x0 PUSH8 0xFFFFFFFFFFFFFFFF DUP3 GT ISZERO PUSH2 0xA7C JUMPI PUSH2 0xA7B PUSH2 0x9E6 JUMP JUMPDEST JUMPDEST PUSH2 0xA85 DUP3 PUSH2 0x9D5 JUMP JUMPDEST SWAP1 POP PUSH1 0x20 DUP2 ADD SWAP1 POP SWAP2 SWAP1 POP JUMP JUMPDEST DUP3 DUP2 DUP4 CALLDATACOPY PUSH1 0x0 DUP4 DUP4 ADD MSTORE POP POP POP JUMP JUMPDEST PUSH1 0x0 PUSH2 0xAB4 PUSH2 0xAAF DUP5 PUSH2 0xA61 JUMP JUMPDEST PUSH2 0xA46 JUMP JUMPDEST SWAP1 POP DUP3 DUP2 MSTORE PUSH1 0x20 DUP2 ADD DUP5 DUP5 DUP5 ADD GT ISZERO PUSH2 0xAD0 JUMPI PUSH2 0xACF PUSH2 0x9D0 JUMP JUMPDEST JUMPDEST PUSH2 0xADB DUP5 DUP3 DUP6 PUSH2 0xA92 JUMP JUMPDEST POP SWAP4 SWAP3 POP POP POP JUMP JUMPDEST PUSH1 0x0 DUP3 PUSH1 0x1F DUP4 ADD SLT PUSH2 0xAF8 JUMPI PUSH2 0xAF7 PUSH2 0x9CB JUMP JUMPDEST JUMPDEST DUP2 CALLDATALOAD PUSH2 0xB08 DUP5 DUP3 PUSH1 0x20 DUP7 ADD PUSH2 0xAA1 JUMP JUMPDEST SWAP2 POP POP SWAP3 SWAP2 POP POP JUMP JUMPDEST PUSH2 0xB1A DUP2 PUSH2 0x983 JUMP JUMPDEST DUP2 EQ PUSH2 0xB25 JUMPI PUSH1 0x0 DUP1 REVERT JUMPDEST POP JUMP JUMPDEST PUSH1 0x0 DUP2 CALLDATALOAD SWAP1 POP PUSH2 0xB37 DUP2 PUSH2 0xB11 JUMP JUMPDEST SWAP3 SWAP2 POP POP JUMP JUMPDEST PUSH1 0x0 DUP1 PUSH1 0x40 DUP4 DUP6 SUB SLT ISZERO PUSH2 0xB54 JUMPI PUSH2 0xB53 PUSH2 0x9C1 JUMP JUMPDEST JUMPDEST PUSH1 0x0 DUP4 ADD CALLDATALOAD PUSH8 0xFFFFFFFFFFFFFFFF DUP2 GT ISZERO PUSH2 0xB72 JUMPI PUSH2 0xB71 PUSH2 0x9C6 JUMP JUMPDEST JUMPDEST PUSH2 0xB7E DUP6 DUP3 DUP7 ADD PUSH2 0xAE3 JUMP JUMPDEST SWAP3 POP POP PUSH1 0x20 PUSH2 0xB8F DUP6 DUP3 DUP7 ADD PUSH2 0xB28 JUMP JUMPDEST SWAP2 POP POP SWAP3 POP SWAP3 SWAP1 POP JUMP JUMPDEST PUSH1 0x0 PUSH1 0x20 DUP3 DUP5 SUB SLT ISZERO PUSH2 0xBAF JUMPI PUSH2 0xBAE PUSH2 0x9C1 JUMP JUMPDEST JUMPDEST PUSH1 0x0 PUSH2 0xBBD DUP5 DUP3 DUP6 ADD PUSH2 0xB28 JUMP JUMPDEST SWAP2 POP POP SWAP3 SWAP2 POP POP JUMP JUMPDEST PUSH1 0x0 DUP2 MLOAD SWAP1 POP SWAP2 SWAP1 POP JUMP JUMPDEST PUSH1 0x0 DUP3 DUP3 MSTORE PUSH1 0x20 DUP3 ADD SWAP1 POP SWAP3 SWAP2 POP POP JUMP JUMPDEST PUSH1 0x0 JUMPDEST DUP4 DUP2 LT ISZERO PUSH2 0xC00 JUMPI DUP1 DUP3 ADD MLOAD DUP2 DUP5 ADD MSTORE PUSH1 0x20 DUP2 ADD SWAP1 POP PUSH2 0xBE5 JUMP JUMPDEST PUSH1 0x0 DUP5 DUP5 ADD MSTORE POP POP POP POP JUMP JUMPDEST PUSH1 0x0 PUSH2 0xC17 DUP3 PUSH2 0xBC6 JUMP JUMPDEST PUSH2 0xC21 DUP2 DUP6 PUSH2 0xBD1 JUMP JUMPDEST SWAP4 POP PUSH2 0xC31 DUP2 DUP6 PUSH1 0x20 DUP7 ADD PUSH2 0xBE2 JUMP JUMPDEST PUSH2 0xC3A DUP2 PUSH2 0x9D5 JUMP JUMPDEST DUP5 ADD SWAP2 POP POP SWAP3 SWAP2 POP POP JUMP JUMPDEST PUSH1 0x0 PUSH20 0xFFFFFFFFFFFFFFFFFFFFFFFFFFFFFFFFFFFFFFFF DUP3 AND SWAP1 POP SWAP2 SWAP1 POP JUMP JUMPDEST PUSH1 0x0 PUSH2 0xC70 DUP3 PUSH2 0xC45 JUMP JUMPDEST SWAP1 POP SWAP2 SWAP1 POP JUMP JUMPDEST PUSH2 0xC80 DUP2 PUSH2 0xC65 JUMP JUMPDEST DUP3 MSTORE POP POP JUMP JUMPDEST PUSH1 0x0 DUP2 ISZERO ISZERO SWAP1 POP SWAP2 SWAP1 POP JUMP JUMPDEST PUSH2 0xC9B DUP2 PUSH2 0xC86 JUMP JUMPDEST DUP3 MSTORE POP POP JUMP JUMPDEST PUSH1 0x0 PUSH1 0xC0 DUP3 ADD SWAP1 POP DUP2 DUP2 SUB PUSH1 0x0 DUP4 ADD MSTORE PUSH2 0xCBB DUP2 DUP10 PUSH2 0xC0C JUMP JUMPDEST SWAP1 POP PUSH2 0xCCA PUSH1 0x20 DUP4 ADD DUP9 PUSH2 0x98D JUMP JUMPDEST PUSH2 0xCD7 PUSH1 0x40 DUP4 ADD DUP8 PUSH2 0xC77 JUMP JUMPDEST PUSH2 0xCE4 PUSH1 0x60 DUP4 ADD DUP7 PUSH2 0xC92 JUMP JUMPDEST PUSH2 0xCF1 PUSH1 0x80 DUP4 ADD DUP6 PUSH2 0xC77 JUMP JUMPDEST PUSH2 0xCFE PUSH1 0xA0 DUP4 ADD DUP5 PUSH2 0xC92 JUMP JUMPDEST SWAP8 SWAP7 POP POP POP POP POP POP POP JUMP JUMPDEST PUSH32 0x5072696365206D7573742062652067726561746572207468616E203000000000 PUSH1 0x0 DUP3 ADD MSTORE POP JUMP JUMPDEST PUSH1 0x0 PUSH2 0xD3F PUSH1 0x1C DUP4 PUSH2 0xBD1 JUMP JUMPDEST SWAP2 POP PUSH2 0xD4A DUP3 PUSH2 0xD09 JUMP JUMPDEST PUSH1 0x20 DUP3 ADD SWAP1 POP SWAP2 SWAP1 POP JUMP JUMPDEST PUSH1 0x0 PUSH1 0x20 DUP3 ADD SWAP1 POP DUP2 DUP2 SUB PUSH1 0x0 DUP4 ADD MSTORE PUSH2 0xD6E DUP2 PUSH2 0xD32 JUMP JUMPDEST SWAP1 POP SWAP2 SWAP1 POP JUMP JUMPDEST PUSH32 0x4E487B7100000000000000000000000000000000000000000000000000000000 PUSH1 0x0 MSTORE PUSH1 0x11 PUSH1 0x4 MSTORE PUSH1 0x24 PUSH1 0x0 REVERT JUMPDEST PUSH1 0x0 PUSH2 0xDAF DUP3 PUSH2 0x983 JUMP JUMPDEST SWAP2 POP PUSH32 0xFFFFFFFFFFFFFFFFFFFFFFFFFFFFFFFFFFFFFFFFFFFFFFFFFFFFFFFFFFFFFFFF DUP3 SUB PUSH2 0xDE1 JUMPI PUSH2 0xDE0 PUSH2 0xD75 JUMP JUMPDEST JUMPDEST PUSH1 0x1 DUP3 ADD SWAP1 POP SWAP2 SWAP1 POP JUMP JUMPDEST PUSH32 0x4E487B7100000000000000000000000000000000000000000000000000000000 PUSH1 0x0 MSTORE PUSH1 0x22 PUSH1 0x4 MSTORE PUSH1 0x24 PUSH1 0x0 REVERT JUMPDEST PUSH1 0x0 PUSH1 0x2 DUP3 DIV SWAP1 POP PUSH1 0x1 DUP3 AND DUP1 PUSH2 0xE33 JUMPI PUSH1 0x7F DUP3 AND SWAP2 POP JUMPDEST PUSH1 0x20 DUP3 LT DUP2 SUB PUSH2 0xE46 JUMPI PUSH2 0xE45 PUSH2 0xDEC JUMP JUMPDEST JUMPDEST POP SWAP2 SWAP1 POP JUMP JUMPDEST PUSH1 0x0 DUP2 SWAP1 POP DUP2 PUSH1 0x0 MSTORE PUSH1 0x20 PUSH1 0x0 KECCAK256 SWAP1 POP SWAP2 SWAP1 POP JUMP JUMPDEST PUSH1 0x0 PUSH1 0x20 PUSH1 0x1F DUP4 ADD DIV SWAP1 POP SWAP2 SWAP1 POP JUMP JUMPDEST PUSH1 0x0 DUP3 DUP3 SHL SWAP1 POP SWAP3 SWAP2 POP POP JUMP JUMPDEST PUSH1 0x0 PUSH1 0x8 DUP4 MUL PUSH2 0xEAE PUSH32 0xFFFFFFFFFFFFFFFFFFFFFFFFFFFFFFFFFFFFFFFFFFFFFFFFFFFFFFFFFFFFFFFF DUP3 PUSH2 0xE71 JUMP JUMPDEST PUSH2 0xEB8 DUP7 DUP4 PUSH2 0xE71 JUMP JUMPDEST SWAP6 POP DUP1 NOT DUP5 AND SWAP4 POP DUP1 DUP7 AND DUP5 OR SWAP3 POP POP POP SWAP4 SWAP3 POP POP POP JUMP JUMPDEST PUSH1 0x0 DUP2 SWAP1 POP SWAP2 SWAP1 POP JUMP JUMPDEST PUSH1 0x0 PUSH2 0xEF5 PUSH2 0xEF0 PUSH2 0xEEB DUP5 PUSH2 0x983 JUMP JUMPDEST PUSH2 0xED0 JUMP JUMPDEST PUSH2 0x983 JUMP JUMPDEST SWAP1 POP SWAP2 SWAP1 POP JUMP JUMPDEST PUSH1 0x0 DUP2 SWAP1 POP SWAP2 SWAP1 POP JUMP JUMPDEST PUSH2 0xF0F DUP4 PUSH2 0xEDA JUMP JUMPDEST PUSH2 0xF23 PUSH2 0xF1B DUP3 PUSH2 0xEFC JUMP JUMPDEST DUP5 DUP5 SLOAD PUSH2 0xE7E JUMP JUMPDEST DUP3 SSTORE POP POP POP POP JUMP JUMPDEST PUSH1 0x0 SWAP1 JUMP JUMPDEST PUSH2 0xF38 PUSH2 0xF2B JUMP JUMPDEST PUSH2 0xF43 DUP2 DUP5 DUP5 PUSH2 0xF06 JUMP JUMPDEST POP POP POP JUMP JUMPDEST JUMPDEST DUP2 DUP2 LT ISZERO PUSH2 0xF67 JUMPI PUSH2 0xF5C PUSH1 0x0 DUP3 PUSH2 0xF30 JUMP JUMPDEST PUSH1 0x1 DUP2 ADD SWAP1 POP PUSH2 0xF49 JUMP JUMPDEST POP POP JUMP JUMPDEST PUSH1 0x1F DUP3 GT ISZERO PUSH2 0xFAC JUMPI PUSH2 0xF7D DUP2 PUSH2 0xE4C JUMP JUMPDEST PUSH2 0xF86 DUP5 PUSH2 0xE61 JUMP JUMPDEST DUP2 ADD PUSH1 0x20 DUP6 LT ISZERO PUSH2 0xF95 JUMPI DUP2 SWAP1 POP JUMPDEST PUSH2 0xFA9 PUSH2 0xFA1 DUP6 PUSH2 0xE61 JUMP JUMPDEST DUP4 ADD DUP3 PUSH2 0xF48 JUMP JUMPDEST POP POP JUMPDEST POP POP POP JUMP JUMPDEST PUSH1 0x0 DUP3 DUP3 SHR SWAP1 POP SWAP3 SWAP2 POP POP JUMP JUMPDEST PUSH1 0x0 PUSH2 0xFCF PUSH1 0x0 NOT DUP5 PUSH1 0x8 MUL PUSH2 0xFB1 JUMP JUMPDEST NOT DUP1 DUP4 AND SWAP2 POP POP SWAP3 SWAP2 POP POP JUMP JUMPDEST PUSH1 0x0 PUSH2 0xFE8 DUP4 DUP4 PUSH2 0xFBE JUMP JUMPDEST SWAP2 POP DUP3 PUSH1 0x2 MUL DUP3 OR SWAP1 POP SWAP3 SWAP2 POP POP JUMP JUMPDEST PUSH2 0x1001 DUP3 PUSH2 0xBC6 JUMP JUMPDEST PUSH8 0xFFFFFFFFFFFFFFFF DUP2 GT ISZERO PUSH2 0x101A JUMPI PUSH2 0x1019 PUSH2 0x9E6 JUMP JUMPDEST JUMPDEST PUSH2 0x1024 DUP3 SLOAD PUSH2 0xE1B JUMP JUMPDEST PUSH2 0x102F DUP3 DUP3 DUP6 PUSH2 0xF6B JUMP JUMPDEST PUSH1 0x0 PUSH1 0x20 SWAP1 POP PUSH1 0x1F DUP4 GT PUSH1 0x1 DUP2 EQ PUSH2 0x1062 JUMPI PUSH1 0x0 DUP5 ISZERO PUSH2 0x1050 JUMPI DUP3 DUP8 ADD MLOAD SWAP1 POP JUMPDEST PUSH2 0x105A DUP6 DUP3 PUSH2 0xFDC JUMP JUMPDEST DUP7 SSTORE POP PUSH2 0x10C2 JUMP JUMPDEST PUSH1 0x1F NOT DUP5 AND PUSH2 0x1070 DUP7 PUSH2 0xE4C JUMP JUMPDEST PUSH1 0x0 JUMPDEST DUP3 DUP2 LT ISZERO PUSH2 0x1098 JUMPI DUP5 DUP10 ADD MLOAD DUP3 SSTORE PUSH1 0x1 DUP3 ADD SWAP2 POP PUSH1 0x20 DUP6 ADD SWAP5 POP PUSH1 0x20 DUP2 ADD SWAP1 POP PUSH2 0x1073 JUMP JUMPDEST DUP7 DUP4 LT ISZERO PUSH2 0x10B5 JUMPI DUP5 DUP10 ADD MLOAD PUSH2 0x10B1 PUSH1 0x1F DUP10 AND DUP3 PUSH2 0xFBE JUMP JUMPDEST DUP4 SSTORE POP JUMPDEST PUSH1 0x1 PUSH1 0x2 DUP9 MUL ADD DUP9 SSTORE POP POP POP JUMPDEST POP POP POP POP POP POP JUMP JUMPDEST PUSH1 0x0 PUSH1 0x40 DUP3 ADD SWAP1 POP DUP2 DUP2 SUB PUSH1 0x0 DUP4 ADD MSTORE PUSH2 0x10E4 DUP2 DUP6 PUSH2 0xC0C JUMP JUMPDEST SWAP1 POP PUSH2 0x10F3 PUSH1 0x20 DUP4 ADD DUP5 PUSH2 0x98D JUMP JUMPDEST SWAP4 SWAP3 POP POP POP JUMP JUMPDEST PUSH32 0x4974656D206973206E6F7420617661696C61626C650000000000000000000000 PUSH1 0x0 DUP3 ADD MSTORE POP JUMP JUMPDEST PUSH1 0x0 PUSH2 0x1130 PUSH1 0x15 DUP4 PUSH2 0xBD1 JUMP JUMPDEST SWAP2 POP PUSH2 0x113B DUP3 PUSH2 0x10FA JUMP JUMPDEST PUSH1 0x20 DUP3 ADD SWAP1 POP SWAP2 SWAP1 POP JUMP JUMPDEST PUSH1 0x0 PUSH1 0x20 DUP3 ADD SWAP1 POP DUP2 DUP2 SUB PUSH1 0x0 DUP4 ADD MSTORE PUSH2 0x115F DUP2 PUSH2 0x1123 JUMP JUMPDEST SWAP1 POP SWAP2 SWAP1 POP JUMP JUMPDEST PUSH32 0x43616E6E6F742062757920796F7572206F776E206974656D0000000000000000 PUSH1 0x0 DUP3 ADD MSTORE POP JUMP JUMPDEST PUSH1 0x0 PUSH2 0x119C PUSH1 0x18 DUP4 PUSH2 0xBD1 JUMP JUMPDEST SWAP2 POP PUSH2 0x11A7 DUP3 PUSH2 0x1166 JUMP JUMPDEST PUSH1 0x20 DUP3 ADD SWAP1 POP SWAP2 SWAP1 POP JUMP JUMPDEST PUSH1 0x0 PUSH1 0x20 DUP3 ADD SWAP1 POP DUP2 DUP2 SUB PUSH1 0x0 DUP4 ADD MSTORE PUSH2 0x11CB DUP2 PUSH2 0x118F JUMP JUMPDEST SWAP1 POP SWAP2 SWAP1 POP JUMP JUMPDEST PUSH32 0x496E636F7272656374207061796D656E7420616D6F756E740000000000000000 PUSH1 0x0 DUP3 ADD MSTORE POP JUMP JUMPDEST PUSH1 0x0 PUSH2 0x1208 PUSH1 0x18 DUP4 PUSH2 0xBD1 JUMP JUMPDEST SWAP2 POP PUSH2 0x1213 DUP3 PUSH2 0x11D2 JUMP JUMPDEST PUSH1 0x20 DUP3 ADD SWAP1 POP SWAP2 SWAP1 POP JUMP JUMPDEST PUSH1 0x0 PUSH1 0x20 DUP3 ADD SWAP1 POP DUP2 DUP2 SUB PUSH1 0x0 DUP4 ADD MSTORE PUSH2 0x1237 DUP2 PUSH2 0x11FB JUMP JUMPDEST SWAP1 POP SWAP2 SWAP1 POP JUMP JUMPDEST PUSH32 0x4F6E6C79206F776E65722063616E2061636365707420616E206F666665720000 PUSH1 0x0 DUP3 ADD MSTORE POP JUMP JUMPDEST PUSH1 0x0 PUSH2 0x1274 PUSH1 0x1E DUP4 PUSH2 0xBD1 JUMP JUMPDEST SWAP2 POP PUSH2 0x127F DUP3 PUSH2 0x123E JUMP JUMPDEST PUSH1 0x20 DUP3 ADD SWAP1 POP SWAP2 SWAP1 POP JUMP JUMPDEST PUSH1 0x0 PUSH1 0x20 DUP3 ADD SWAP1 POP DUP2 DUP2 SUB PUSH1 0x0 DUP4 ADD MSTORE PUSH2 0x12A3 DUP2 PUSH2 0x1267 JUMP JUMPDEST SWAP1 POP SWAP2 SWAP1 POP JUMP JUMPDEST PUSH32 0x4E6F206F6666657220686173206265656E206D61646500000000000000000000 PUSH1 0x0 DUP3 ADD MSTORE POP JUMP JUMPDEST PUSH1 0x0 PUSH2 0x12E0 PUSH1 0x16 DUP4 PUSH2 0xBD1 JUMP JUMPDEST SWAP2 POP PUSH2 0x12EB DUP3 PUSH2 0x12AA JUMP JUMPDEST PUSH1 0x20 DUP3 ADD SWAP1 POP SWAP2 SWAP1 POP JUMP JUMPDEST PUSH1 0x0 PUSH1 0x20 DUP3 ADD SWAP1 POP DUP2 DUP2 SUB PUSH1 0x0 DUP4 ADD MSTORE PUSH2 0x130F DUP2 PUSH2 0x12D3 JUMP JUMPDEST SWAP1 POP SWAP2 SWAP1 POP JUMP INVALID LOG2 PUSH5 0x6970667358 0x22 SLT KECCAK256 0xE 0xB6 0xCE DUP13 LOG3 SWAP3 PUSH24 0x7A05447963D87A5A3E11B33AD6C953F8C638B33A22CC6309 0x23 PUSH5 0x736F6C6343 STOP ADDMOD SGT STOP CALLER "
				},
				"gasEstimates": {
					"creation": {
						"codeDepositCost": "988000",
						"executionCost": "1027",
						"totalCost": "989027"
					},
					"external": {
						"acceptOffer(uint256)": "infinite",
						"itemCounter()": "2407",
						"items(uint256)": "infinite",
						"makeItemAvailable(string,uint256)": "infinite",
						"makeOffer(uint256)": "infinite"
					}
				},
				"methodIdentifiers": {
					"acceptOffer(uint256)": "c815729d",
					"itemCounter()": "6d6d00ed",
					"items(uint256)": "bfb231d2",
					"makeItemAvailable(string,uint256)": "8a075f90",
					"makeOffer(uint256)": "9a2f6474"
				}
			},
			"storageLayout": {
				"storage": [
					{
						"astId": 19,
						"contract": "Decentralized Marketplace.sol:Marketplace",
						"label": "items",
						"offset": 0,
						"slot": "0",
						"type": "t_mapping(t_uint256,t_struct(Item)14_storage)"
					},
					{
						"astId": 21,
						"contract": "Decentralized Marketplace.sol:Marketplace",
						"label": "itemCounter",
						"offset": 0,
						"slot": "1",
						"type": "t_uint256"
					}
				],
				"types": {
					"t_address": {
						"encoding": "inplace",
						"label": "address",
						"numberOfBytes": "20"
					},
					"t_bool": {
						"encoding": "inplace",
						"label": "bool",
						"numberOfBytes": "1"
					},
					"t_mapping(t_uint256,t_struct(Item)14_storage)": {
						"encoding": "mapping",
						"key": "t_uint256",
						"label": "mapping(uint256 => struct Marketplace.Item)",
						"numberOfBytes": "32",
						"value": "t_struct(Item)14_storage"
					},
					"t_string_storage": {
						"encoding": "bytes",
						"label": "string",
						"numberOfBytes": "32"
					},
					"t_struct(Item)14_storage": {
						"encoding": "inplace",
						"label": "struct Marketplace.Item",
						"members": [
							{
								"astId": 3,
								"contract": "Decentralized Marketplace.sol:Marketplace",
								"label": "name",
								"offset": 0,
								"slot": "0",
								"type": "t_string_storage"
							},
							{
								"astId": 5,
								"contract": "Decentralized Marketplace.sol:Marketplace",
								"label": "price",
								"offset": 0,
								"slot": "1",
								"type": "t_uint256"
							},
							{
								"astId": 7,
								"contract": "Decentralized Marketplace.sol:Marketplace",
								"label": "owner",
								"offset": 0,
								"slot": "2",
								"type": "t_address"
							},
							{
								"astId": 9,
								"contract": "Decentralized Marketplace.sol:Marketplace",
								"label": "isAvailable",
								"offset": 20,
								"slot": "2",
								"type": "t_bool"
							},
							{
								"astId": 11,
								"contract": "Decentralized Marketplace.sol:Marketplace",
								"label": "buyer",
								"offset": 0,
								"slot": "3",
								"type": "t_address"
							},
							{
								"astId": 13,
								"contract": "Decentralized Marketplace.sol:Marketplace",
								"label": "isAccepted",
								"offset": 20,
								"slot": "3",
								"type": "t_bool"
							}
						],
						"numberOfBytes": "128"
					},
					"t_uint256": {
						"encoding": "inplace",
						"label": "uint256",
						"numberOfBytes": "32"
					}
				}
			},
			"userdoc": {
				"kind": "user",
				"methods": {},
				"version": 1
			}
		}
	}
}